{
  "abi": [
    {
      "constant": true,
      "inputs": [
        {
          "name": "x1",
          "type": "uint256"
        },
        {
          "name": "z1",
          "type": "uint256"
        },
        {
          "name": "x2",
          "type": "uint256"
        },
        {
          "name": "z2",
          "type": "uint256"
        }
      ],
      "name": "_jAdd",
      "outputs": [
        {
          "name": "x3",
          "type": "uint256"
        },
        {
          "name": "z3",
          "type": "uint256"
        }
      ],
      "payable": false,
      "stateMutability": "pure",
      "type": "function"
    },
    {
      "constant": true,
      "inputs": [
        {
          "name": "x1",
          "type": "uint256"
        },
        {
          "name": "y1",
          "type": "uint256"
        },
        {
          "name": "scalar",
          "type": "uint256"
        },
        {
          "name": "qx",
          "type": "uint256"
        },
        {
          "name": "qy",
          "type": "uint256"
        }
      ],
      "name": "ecmulVerify",
      "outputs": [
        {
          "name": "",
          "type": "bool"
        }
      ],
      "payable": false,
      "stateMutability": "pure",
      "type": "function"
    },
    {
      "constant": true,
      "inputs": [],
      "name": "gx",
      "outputs": [
        {
          "name": "",
          "type": "uint256"
        }
      ],
      "payable": false,
      "stateMutability": "view",
      "type": "function"
    },
    {
      "constant": true,
      "inputs": [],
      "name": "a",
      "outputs": [
        {
          "name": "",
          "type": "uint256"
        }
      ],
      "payable": false,
      "stateMutability": "view",
      "type": "function"
    },
    {
      "constant": true,
      "inputs": [
        {
          "name": "x1",
          "type": "uint256"
        },
        {
          "name": "z1",
          "type": "uint256"
        },
        {
          "name": "x2",
          "type": "uint256"
        },
        {
          "name": "z2",
          "type": "uint256"
        }
      ],
      "name": "_jSub",
      "outputs": [
        {
          "name": "x3",
          "type": "uint256"
        },
        {
          "name": "z3",
          "type": "uint256"
        }
      ],
      "payable": false,
      "stateMutability": "pure",
      "type": "function"
    },
    {
      "constant": true,
      "inputs": [],
      "name": "gy",
      "outputs": [
        {
          "name": "",
          "type": "uint256"
        }
      ],
      "payable": false,
      "stateMutability": "view",
      "type": "function"
    },
    {
      "constant": true,
      "inputs": [],
      "name": "n",
      "outputs": [
        {
          "name": "",
          "type": "uint256"
        }
      ],
      "payable": false,
      "stateMutability": "view",
      "type": "function"
    },
    {
      "constant": true,
      "inputs": [
        {
          "name": "point",
          "type": "uint256[2]"
        }
      ],
      "name": "point_hash",
      "outputs": [
        {
          "name": "",
          "type": "address"
        }
      ],
      "payable": false,
      "stateMutability": "pure",
      "type": "function"
    },
    {
      "constant": true,
      "inputs": [],
      "name": "b",
      "outputs": [
        {
          "name": "",
          "type": "uint256"
        }
      ],
      "payable": false,
      "stateMutability": "view",
      "type": "function"
    },
    {
      "constant": true,
      "inputs": [
        {
          "name": "x1",
          "type": "uint256"
        },
        {
          "name": "z1",
          "type": "uint256"
        },
        {
          "name": "x2",
          "type": "uint256"
        },
        {
          "name": "z2",
          "type": "uint256"
        }
      ],
      "name": "_jMul",
      "outputs": [
        {
          "name": "x3",
          "type": "uint256"
        },
        {
          "name": "z3",
          "type": "uint256"
        }
      ],
      "payable": false,
      "stateMutability": "pure",
      "type": "function"
    },
    {
      "constant": true,
      "inputs": [
        {
          "name": "x1",
          "type": "uint256"
        },
        {
          "name": "z1",
          "type": "uint256"
        },
        {
          "name": "x2",
          "type": "uint256"
        },
        {
          "name": "z2",
          "type": "uint256"
        }
      ],
      "name": "_jDiv",
      "outputs": [
        {
          "name": "x3",
          "type": "uint256"
        },
        {
          "name": "z3",
          "type": "uint256"
        }
      ],
      "payable": false,
      "stateMutability": "pure",
      "type": "function"
    },
    {
      "constant": true,
      "inputs": [
        {
          "name": "privKey",
          "type": "uint256"
        },
        {
          "name": "x",
          "type": "uint256"
        },
        {
          "name": "y",
          "type": "uint256"
        }
      ],
      "name": "publicKeyVerify",
      "outputs": [
        {
          "name": "",
          "type": "bool"
        }
      ],
      "payable": false,
      "stateMutability": "pure",
      "type": "function"
    },
    {
      "constant": true,
      "inputs": [
        {
          "name": "x1",
          "type": "uint256"
        },
        {
          "name": "y1",
          "type": "uint256"
        },
        {
          "name": "scalar",
          "type": "uint256"
        }
      ],
      "name": "ecmul",
      "outputs": [
        {
          "name": "x2",
          "type": "uint256"
        },
        {
          "name": "y2",
          "type": "uint256"
        }
      ],
      "payable": false,
      "stateMutability": "pure",
      "type": "function"
    },
    {
      "constant": true,
      "inputs": [
        {
          "name": "privKey",
          "type": "uint256"
        }
      ],
      "name": "publicKey",
      "outputs": [
        {
          "name": "qx",
          "type": "uint256"
        },
        {
          "name": "qy",
          "type": "uint256"
        }
      ],
      "payable": false,
      "stateMutability": "pure",
      "type": "function"
    },
    {
      "constant": true,
      "inputs": [
        {
          "name": "val",
          "type": "uint256"
        }
      ],
      "name": "_inverse",
      "outputs": [
        {
          "name": "invVal",
          "type": "uint256"
        }
      ],
      "payable": false,
      "stateMutability": "pure",
      "type": "function"
    },
    {
      "constant": true,
      "inputs": [
        {
          "name": "d",
          "type": "uint256"
        },
        {
          "name": "x1",
          "type": "uint256"
        },
        {
          "name": "y1",
          "type": "uint256"
        },
        {
          "name": "z1",
          "type": "uint256"
        }
      ],
      "name": "_ecMul",
      "outputs": [
        {
          "name": "x3",
          "type": "uint256"
        },
        {
          "name": "y3",
          "type": "uint256"
        },
        {
          "name": "z3",
          "type": "uint256"
        }
      ],
      "payable": false,
      "stateMutability": "pure",
      "type": "function"
    },
    {
      "constant": true,
      "inputs": [
        {
          "name": "_s",
          "type": "uint256"
        },
        {
          "name": "B",
          "type": "uint256[2]"
        },
        {
          "name": "c",
          "type": "uint256"
        }
      ],
      "name": "sbmul_add_mul",
      "outputs": [
        {
          "name": "",
          "type": "address"
        }
      ],
      "payable": false,
      "stateMutability": "pure",
      "type": "function"
    },
    {
      "constant": true,
      "inputs": [
        {
          "name": "x1",
          "type": "uint256"
        },
        {
          "name": "y1",
          "type": "uint256"
        },
        {
          "name": "x2",
          "type": "uint256"
        },
        {
          "name": "y2",
          "type": "uint256"
        }
      ],
      "name": "ecadd",
      "outputs": [
        {
          "name": "x3",
          "type": "uint256"
        },
        {
          "name": "y3",
          "type": "uint256"
        }
      ],
      "payable": false,
      "stateMutability": "pure",
      "type": "function"
    },
    {
      "constant": true,
      "inputs": [
        {
          "name": "x1",
          "type": "uint256"
        },
        {
          "name": "y1",
          "type": "uint256"
        },
        {
          "name": "z1",
          "type": "uint256"
        },
        {
          "name": "x2",
          "type": "uint256"
        },
        {
          "name": "y2",
          "type": "uint256"
        },
        {
          "name": "z2",
          "type": "uint256"
        }
      ],
      "name": "_ecAdd",
      "outputs": [
        {
          "name": "x3",
          "type": "uint256"
        },
        {
          "name": "y3",
          "type": "uint256"
        },
        {
          "name": "z3",
          "type": "uint256"
        }
      ],
      "payable": false,
      "stateMutability": "pure",
      "type": "function"
    },
    {
      "constant": true,
      "inputs": [
        {
          "name": "privKey",
          "type": "uint256"
        },
        {
          "name": "pubX",
          "type": "uint256"
        },
        {
          "name": "pubY",
          "type": "uint256"
        }
      ],
      "name": "deriveKey",
      "outputs": [
        {
          "name": "qx",
          "type": "uint256"
        },
        {
          "name": "qy",
          "type": "uint256"
        }
      ],
      "payable": false,
      "stateMutability": "pure",
      "type": "function"
    },
    {
      "constant": true,
      "inputs": [
        {
          "name": "x1",
          "type": "uint256"
        },
        {
          "name": "y1",
          "type": "uint256"
        },
        {
          "name": "z1",
          "type": "uint256"
        }
      ],
      "name": "_ecDouble",
      "outputs": [
        {
          "name": "x3",
          "type": "uint256"
        },
        {
          "name": "y3",
          "type": "uint256"
        },
        {
          "name": "z3",
          "type": "uint256"
        }
      ],
      "payable": false,
      "stateMutability": "pure",
      "type": "function"
    }
  ],
  "devdoc": {
    "methods": {}
  },
  "evm": {
    "assembly": "    /* \"HeiswapV0.sol\":33:6474  contract HeiswapV0 {... */\n  mstore(0x40, 0x80)\n  callvalue\n    /* \"--CODEGEN--\":8:17   */\n  dup1\n    /* \"--CODEGEN--\":5:7   */\n  iszero\n  tag_1\n  jumpi\n    /* \"--CODEGEN--\":30:31   */\n  0x00\n    /* \"--CODEGEN--\":27:28   */\n  dup1\n    /* \"--CODEGEN--\":20:32   */\n  revert\n    /* \"--CODEGEN--\":5:7   */\ntag_1:\n    /* \"HeiswapV0.sol\":33:6474  contract HeiswapV0 {... */\n  pop\n  dataSize(sub_0)\n  dup1\n  dataOffset(sub_0)\n  0x00\n  codecopy\n  0x00\n  return\nstop\n\nsub_0: assembly {\n        /* \"HeiswapV0.sol\":33:6474  contract HeiswapV0 {... */\n      mstore(0x40, 0x80)\n      callvalue\n        /* \"--CODEGEN--\":8:17   */\n      dup1\n        /* \"--CODEGEN--\":5:7   */\n      iszero\n      tag_1\n      jumpi\n        /* \"--CODEGEN--\":30:31   */\n      0x00\n        /* \"--CODEGEN--\":27:28   */\n      dup1\n        /* \"--CODEGEN--\":20:32   */\n      revert\n        /* \"--CODEGEN--\":5:7   */\n    tag_1:\n        /* \"HeiswapV0.sol\":33:6474  contract HeiswapV0 {... */\n      pop\n      jumpi(tag_2, lt(calldatasize, 0x04))\n      shr(0xe0, calldataload(0x00))\n      dup1\n      0x5f972df8\n      gt\n      tag_24\n      jumpi\n      dup1\n      0x913f424c\n      gt\n      tag_25\n      jumpi\n      dup1\n      0x913f424c\n      eq\n      tag_18\n      jumpi\n      dup1\n      0xa01539fc\n      eq\n      tag_19\n      jumpi\n      dup1\n      0xbb8c256a\n      eq\n      tag_20\n      jumpi\n      dup1\n      0xdb318833\n      eq\n      tag_21\n      jumpi\n      dup1\n      0xe241c1d9\n      eq\n      tag_22\n      jumpi\n      dup1\n      0xf47289e1\n      eq\n      tag_23\n      jumpi\n      jump(tag_2)\n    tag_25:\n      dup1\n      0x5f972df8\n      eq\n      tag_13\n      jumpi\n      dup1\n      0x66ce10b7\n      eq\n      tag_14\n      jumpi\n      dup1\n      0x8081a1e7\n      eq\n      tag_15\n      jumpi\n      dup1\n      0x8940aebe\n      eq\n      tag_16\n      jumpi\n      dup1\n      0x8cecf66e\n      eq\n      tag_17\n      jumpi\n      jump(tag_2)\n    tag_24:\n      dup1\n      0x2d58c9a2\n      gt\n      tag_26\n      jumpi\n      dup1\n      0x2d58c9a2\n      eq\n      tag_8\n      jumpi\n      dup1\n      0x2e52d606\n      eq\n      tag_9\n      jumpi\n      dup1\n      0x426817fa\n      eq\n      tag_10\n      jumpi\n      dup1\n      0x4df7e3d0\n      eq\n      tag_11\n      jumpi\n      dup1\n      0x5b764811\n      eq\n      tag_12\n      jumpi\n      jump(tag_2)\n    tag_26:\n      dup1\n      0x0138e31b\n      eq\n      tag_3\n      jumpi\n      dup1\n      0x022079d9\n      eq\n      tag_4\n      jumpi\n      dup1\n      0x06c91ce3\n      eq\n      tag_5\n      jumpi\n      dup1\n      0x0dbe671f\n      eq\n      tag_6\n      jumpi\n      dup1\n      0x1ecfe64d\n      eq\n      tag_7\n      jumpi\n    tag_2:\n      0x00\n      dup1\n      revert\n        /* \"HeiswapV0.sol\":432:777  function _jAdd(... */\n    tag_3:\n      tag_27\n      0x04\n      dup1\n      calldatasize\n      sub\n        /* \"--CODEGEN--\":13:16   */\n      0x80\n        /* \"--CODEGEN--\":8:11   */\n      dup2\n        /* \"--CODEGEN--\":5:17   */\n      lt\n        /* \"--CODEGEN--\":2:4   */\n      iszero\n      tag_28\n      jumpi\n        /* \"--CODEGEN--\":30:31   */\n      0x00\n        /* \"--CODEGEN--\":27:28   */\n      dup1\n        /* \"--CODEGEN--\":20:32   */\n      revert\n        /* \"--CODEGEN--\":2:4   */\n    tag_28:\n        /* \"HeiswapV0.sol\":432:777  function _jAdd(... */\n      dup2\n      add\n      swap1\n      dup1\n      dup1\n      calldataload\n      swap1\n      0x20\n      add\n      swap1\n      swap3\n      swap2\n      swap1\n      dup1\n      calldataload\n      swap1\n      0x20\n      add\n      swap1\n      swap3\n      swap2\n      swap1\n      dup1\n      calldataload\n      swap1\n      0x20\n      add\n      swap1\n      swap3\n      swap2\n      swap1\n      dup1\n      calldataload\n      swap1\n      0x20\n      add\n      swap1\n      swap3\n      swap2\n      swap1\n      pop\n      pop\n      pop\n      tag_29\n      jump\t// in\n    tag_27:\n      mload(0x40)\n      dup1\n      dup4\n      dup2\n      mstore\n      0x20\n      add\n      dup3\n      dup2\n      mstore\n      0x20\n      add\n      swap3\n      pop\n      pop\n      pop\n      mload(0x40)\n      dup1\n      swap2\n      sub\n      swap1\n      return\n        /* \"HeiswapV0.sol\":5631:5869  function ecmulVerify(uint256 x1, uint256 y1, uint256 scalar, uint256 qx, uint256 qy) public pure... */\n    tag_4:\n      tag_30\n      0x04\n      dup1\n      calldatasize\n      sub\n        /* \"--CODEGEN--\":13:16   */\n      0xa0\n        /* \"--CODEGEN--\":8:11   */\n      dup2\n        /* \"--CODEGEN--\":5:17   */\n      lt\n        /* \"--CODEGEN--\":2:4   */\n      iszero\n      tag_31\n      jumpi\n        /* \"--CODEGEN--\":30:31   */\n      0x00\n        /* \"--CODEGEN--\":27:28   */\n      dup1\n        /* \"--CODEGEN--\":20:32   */\n      revert\n        /* \"--CODEGEN--\":2:4   */\n    tag_31:\n        /* \"HeiswapV0.sol\":5631:5869  function ecmulVerify(uint256 x1, uint256 y1, uint256 scalar, uint256 qx, uint256 qy) public pure... */\n      dup2\n      add\n      swap1\n      dup1\n      dup1\n      calldataload\n      swap1\n      0x20\n      add\n      swap1\n      swap3\n      swap2\n      swap1\n      dup1\n      calldataload\n      swap1\n      0x20\n      add\n      swap1\n      swap3\n      swap2\n      swap1\n      dup1\n      calldataload\n      swap1\n      0x20\n      add\n      swap1\n      swap3\n      swap2\n      swap1\n      dup1\n      calldataload\n      swap1\n      0x20\n      add\n      swap1\n      swap3\n      swap2\n      swap1\n      dup1\n      calldataload\n      swap1\n      0x20\n      add\n      swap1\n      swap3\n      swap2\n      swap1\n      pop\n      pop\n      pop\n      tag_32\n      jump\t// in\n    tag_30:\n      mload(0x40)\n      dup1\n      dup3\n      iszero\n      iszero\n      iszero\n      iszero\n      dup2\n      mstore\n      0x20\n      add\n      swap2\n      pop\n      pop\n      mload(0x40)\n      dup1\n      swap2\n      sub\n      swap1\n      return\n        /* \"HeiswapV0.sol\":59:154  uint256 constant public gx = 0x79BE667EF9DCBBAC55A06295CE870B07029BFCDB2DCE28D959F2815B16F81798 */\n    tag_5:\n      tag_33\n      tag_34\n      jump\t// in\n    tag_33:\n      mload(0x40)\n      dup1\n      dup3\n      dup2\n      mstore\n      0x20\n      add\n      swap2\n      pop\n      pop\n      mload(0x40)\n      dup1\n      swap2\n      sub\n      swap1\n      return\n        /* \"HeiswapV0.sol\":361:390  uint256 constant public a = 0 */\n    tag_6:\n      tag_35\n      tag_36\n      jump\t// in\n    tag_35:\n      mload(0x40)\n      dup1\n      dup3\n      dup2\n      mstore\n      0x20\n      add\n      swap2\n      pop\n      pop\n      mload(0x40)\n      dup1\n      swap2\n      sub\n      swap1\n      return\n        /* \"HeiswapV0.sol\":783:1132  function _jSub(... */\n    tag_7:\n      tag_37\n      0x04\n      dup1\n      calldatasize\n      sub\n        /* \"--CODEGEN--\":13:16   */\n      0x80\n        /* \"--CODEGEN--\":8:11   */\n      dup2\n        /* \"--CODEGEN--\":5:17   */\n      lt\n        /* \"--CODEGEN--\":2:4   */\n      iszero\n      tag_38\n      jumpi\n        /* \"--CODEGEN--\":30:31   */\n      0x00\n        /* \"--CODEGEN--\":27:28   */\n      dup1\n        /* \"--CODEGEN--\":20:32   */\n      revert\n        /* \"--CODEGEN--\":2:4   */\n    tag_38:\n        /* \"HeiswapV0.sol\":783:1132  function _jSub(... */\n      dup2\n      add\n      swap1\n      dup1\n      dup1\n      calldataload\n      swap1\n      0x20\n      add\n      swap1\n      swap3\n      swap2\n      swap1\n      dup1\n      calldataload\n      swap1\n      0x20\n      add\n      swap1\n      swap3\n      swap2\n      swap1\n      dup1\n      calldataload\n      swap1\n      0x20\n      add\n      swap1\n      swap3\n      swap2\n      swap1\n      dup1\n      calldataload\n      swap1\n      0x20\n      add\n      swap1\n      swap3\n      swap2\n      swap1\n      pop\n      pop\n      pop\n      tag_39\n      jump\t// in\n    tag_37:\n      mload(0x40)\n      dup1\n      dup4\n      dup2\n      mstore\n      0x20\n      add\n      dup3\n      dup2\n      mstore\n      0x20\n      add\n      swap3\n      pop\n      pop\n      pop\n      mload(0x40)\n      dup1\n      swap2\n      sub\n      swap1\n      return\n        /* \"HeiswapV0.sol\":160:255  uint256 constant public gy = 0x483ADA7726A3C4655DA4FBFC0E1108A8FD17B448A68554199C47D08FFB10D4B8 */\n    tag_8:\n      tag_40\n      tag_41\n      jump\t// in\n    tag_40:\n      mload(0x40)\n      dup1\n      dup3\n      dup2\n      mstore\n      0x20\n      add\n      swap2\n      pop\n      pop\n      mload(0x40)\n      dup1\n      swap2\n      sub\n      swap1\n      return\n        /* \"HeiswapV0.sol\":261:355  uint256 constant public n = 0xFFFFFFFFFFFFFFFFFFFFFFFFFFFFFFFFFFFFFFFFFFFFFFFFFFFFFFFEFFFFFC2F */\n    tag_9:\n      tag_42\n      tag_43\n      jump\t// in\n    tag_42:\n      mload(0x40)\n      dup1\n      dup3\n      dup2\n      mstore\n      0x20\n      add\n      swap2\n      pop\n      pop\n      mload(0x40)\n      dup1\n      swap2\n      sub\n      swap1\n      return\n        /* \"HeiswapV0.sol\":4800:5024  function point_hash( uint256[2] memory point )... */\n    tag_10:\n      tag_44\n      0x04\n      dup1\n      calldatasize\n      sub\n        /* \"--CODEGEN--\":13:15   */\n      0x40\n        /* \"--CODEGEN--\":8:11   */\n      dup2\n        /* \"--CODEGEN--\":5:16   */\n      lt\n        /* \"--CODEGEN--\":2:4   */\n      iszero\n      tag_45\n      jumpi\n        /* \"--CODEGEN--\":29:30   */\n      0x00\n        /* \"--CODEGEN--\":26:27   */\n      dup1\n        /* \"--CODEGEN--\":19:31   */\n      revert\n        /* \"--CODEGEN--\":2:4   */\n    tag_45:\n        /* \"HeiswapV0.sol\":4800:5024  function point_hash( uint256[2] memory point )... */\n      dup2\n      add\n      swap1\n      dup1\n      dup1\n      0x40\n      add\n      swap1\n      0x02\n      dup1\n      0x20\n      mul\n      mload(0x40)\n      swap1\n      dup2\n      add\n      0x40\n      mstore\n      dup1\n      swap3\n      swap2\n      swap1\n      dup3\n      mul(0x20, 0x02)\n        /* \"--CODEGEN--\":30:33   */\n      dup1\n        /* \"--CODEGEN--\":22:28   */\n      dup3\n        /* \"--CODEGEN--\":14:20   */\n      dup5\n        /* \"--CODEGEN--\":1:34   */\n      calldatacopy\n        /* \"--CODEGEN--\":99:100   */\n      0x00\n        /* \"--CODEGEN--\":93:96   */\n      dup2\n        /* \"--CODEGEN--\":85:91   */\n      dup5\n        /* \"--CODEGEN--\":81:97   */\n      add\n        /* \"--CODEGEN--\":74:101   */\n      mstore\n        /* \"--CODEGEN--\":137:141   */\n      0x1f\n        /* \"--CODEGEN--\":133:142   */\n      not\n        /* \"--CODEGEN--\":126:130   */\n      0x1f\n        /* \"--CODEGEN--\":121:124   */\n      dup3\n        /* \"--CODEGEN--\":117:131   */\n      add\n        /* \"--CODEGEN--\":113:143   */\n      and\n        /* \"--CODEGEN--\":106:143   */\n      swap1\n      pop\n        /* \"--CODEGEN--\":169:172   */\n      dup1\n        /* \"--CODEGEN--\":161:167   */\n      dup4\n        /* \"--CODEGEN--\":157:173   */\n      add\n        /* \"--CODEGEN--\":147:173   */\n      swap3\n      pop\n        /* \"HeiswapV0.sol\":4800:5024  function point_hash( uint256[2] memory point )... */\n      pop\n      pop\n      pop\n      pop\n      pop\n      swap2\n      swap3\n      swap2\n      swap3\n      swap1\n      pop\n      pop\n      pop\n      tag_46\n      jump\t// in\n    tag_44:\n      mload(0x40)\n      dup1\n      dup3\n      0xffffffffffffffffffffffffffffffffffffffff\n      and\n      0xffffffffffffffffffffffffffffffffffffffff\n      and\n      dup2\n      mstore\n      0x20\n      add\n      swap2\n      pop\n      pop\n      mload(0x40)\n      dup1\n      swap2\n      sub\n      swap1\n      return\n        /* \"HeiswapV0.sol\":396:425  uint256 constant public b = 7 */\n    tag_11:\n      tag_47\n      tag_48\n      jump\t// in\n    tag_47:\n      mload(0x40)\n      dup1\n      dup3\n      dup2\n      mstore\n      0x20\n      add\n      swap2\n      pop\n      pop\n      mload(0x40)\n      dup1\n      swap2\n      sub\n      swap1\n      return\n        /* \"HeiswapV0.sol\":1138:1391  function _jMul(... */\n    tag_12:\n      tag_49\n      0x04\n      dup1\n      calldatasize\n      sub\n        /* \"--CODEGEN--\":13:16   */\n      0x80\n        /* \"--CODEGEN--\":8:11   */\n      dup2\n        /* \"--CODEGEN--\":5:17   */\n      lt\n        /* \"--CODEGEN--\":2:4   */\n      iszero\n      tag_50\n      jumpi\n        /* \"--CODEGEN--\":30:31   */\n      0x00\n        /* \"--CODEGEN--\":27:28   */\n      dup1\n        /* \"--CODEGEN--\":20:32   */\n      revert\n        /* \"--CODEGEN--\":2:4   */\n    tag_50:\n        /* \"HeiswapV0.sol\":1138:1391  function _jMul(... */\n      dup2\n      add\n      swap1\n      dup1\n      dup1\n      calldataload\n      swap1\n      0x20\n      add\n      swap1\n      swap3\n      swap2\n      swap1\n      dup1\n      calldataload\n      swap1\n      0x20\n      add\n      swap1\n      swap3\n      swap2\n      swap1\n      dup1\n      calldataload\n      swap1\n      0x20\n      add\n      swap1\n      swap3\n      swap2\n      swap1\n      dup1\n      calldataload\n      swap1\n      0x20\n      add\n      swap1\n      swap3\n      swap2\n      swap1\n      pop\n      pop\n      pop\n      tag_51\n      jump\t// in\n    tag_49:\n      mload(0x40)\n      dup1\n      dup4\n      dup2\n      mstore\n      0x20\n      add\n      dup3\n      dup2\n      mstore\n      0x20\n      add\n      swap3\n      pop\n      pop\n      pop\n      mload(0x40)\n      dup1\n      swap2\n      sub\n      swap1\n      return\n        /* \"HeiswapV0.sol\":1397:1651  function _jDiv(... */\n    tag_13:\n      tag_52\n      0x04\n      dup1\n      calldatasize\n      sub\n        /* \"--CODEGEN--\":13:16   */\n      0x80\n        /* \"--CODEGEN--\":8:11   */\n      dup2\n        /* \"--CODEGEN--\":5:17   */\n      lt\n        /* \"--CODEGEN--\":2:4   */\n      iszero\n      tag_53\n      jumpi\n        /* \"--CODEGEN--\":30:31   */\n      0x00\n        /* \"--CODEGEN--\":27:28   */\n      dup1\n        /* \"--CODEGEN--\":20:32   */\n      revert\n        /* \"--CODEGEN--\":2:4   */\n    tag_53:\n        /* \"HeiswapV0.sol\":1397:1651  function _jDiv(... */\n      dup2\n      add\n      swap1\n      dup1\n      dup1\n      calldataload\n      swap1\n      0x20\n      add\n      swap1\n      swap3\n      swap2\n      swap1\n      dup1\n      calldataload\n      swap1\n      0x20\n      add\n      swap1\n      swap3\n      swap2\n      swap1\n      dup1\n      calldataload\n      swap1\n      0x20\n      add\n      swap1\n      swap3\n      swap2\n      swap1\n      dup1\n      calldataload\n      swap1\n      0x20\n      add\n      swap1\n      swap3\n      swap2\n      swap1\n      pop\n      pop\n      pop\n      tag_54\n      jump\t// in\n    tag_52:\n      mload(0x40)\n      dup1\n      dup4\n      dup2\n      mstore\n      0x20\n      add\n      dup3\n      dup2\n      mstore\n      0x20\n      add\n      swap3\n      pop\n      pop\n      pop\n      mload(0x40)\n      dup1\n      swap2\n      sub\n      swap1\n      return\n        /* \"HeiswapV0.sol\":6019:6179  function publicKeyVerify(uint256 privKey, uint256 x, uint256 y) public pure... */\n    tag_14:\n      tag_55\n      0x04\n      dup1\n      calldatasize\n      sub\n        /* \"--CODEGEN--\":13:15   */\n      0x60\n        /* \"--CODEGEN--\":8:11   */\n      dup2\n        /* \"--CODEGEN--\":5:16   */\n      lt\n        /* \"--CODEGEN--\":2:4   */\n      iszero\n      tag_56\n      jumpi\n        /* \"--CODEGEN--\":29:30   */\n      0x00\n        /* \"--CODEGEN--\":26:27   */\n      dup1\n        /* \"--CODEGEN--\":19:31   */\n      revert\n        /* \"--CODEGEN--\":2:4   */\n    tag_56:\n        /* \"HeiswapV0.sol\":6019:6179  function publicKeyVerify(uint256 privKey, uint256 x, uint256 y) public pure... */\n      dup2\n      add\n      swap1\n      dup1\n      dup1\n      calldataload\n      swap1\n      0x20\n      add\n      swap1\n      swap3\n      swap2\n      swap1\n      dup1\n      calldataload\n      swap1\n      0x20\n      add\n      swap1\n      swap3\n      swap2\n      swap1\n      dup1\n      calldataload\n      swap1\n      0x20\n      add\n      swap1\n      swap3\n      swap2\n      swap1\n      pop\n      pop\n      pop\n      tag_57\n      jump\t// in\n    tag_55:\n      mload(0x40)\n      dup1\n      dup3\n      iszero\n      iszero\n      iszero\n      iszero\n      dup2\n      mstore\n      0x20\n      add\n      swap2\n      pop\n      pop\n      mload(0x40)\n      dup1\n      swap2\n      sub\n      swap1\n      return\n        /* \"HeiswapV0.sol\":4520:4793  function ecmul(uint256 x1, uint256 y1, uint256 scalar) public pure... */\n    tag_15:\n      tag_58\n      0x04\n      dup1\n      calldatasize\n      sub\n        /* \"--CODEGEN--\":13:15   */\n      0x60\n        /* \"--CODEGEN--\":8:11   */\n      dup2\n        /* \"--CODEGEN--\":5:16   */\n      lt\n        /* \"--CODEGEN--\":2:4   */\n      iszero\n      tag_59\n      jumpi\n        /* \"--CODEGEN--\":29:30   */\n      0x00\n        /* \"--CODEGEN--\":26:27   */\n      dup1\n        /* \"--CODEGEN--\":19:31   */\n      revert\n        /* \"--CODEGEN--\":2:4   */\n    tag_59:\n        /* \"HeiswapV0.sol\":4520:4793  function ecmul(uint256 x1, uint256 y1, uint256 scalar) public pure... */\n      dup2\n      add\n      swap1\n      dup1\n      dup1\n      calldataload\n      swap1\n      0x20\n      add\n      swap1\n      swap3\n      swap2\n      swap1\n      dup1\n      calldataload\n      swap1\n      0x20\n      add\n      swap1\n      swap3\n      swap2\n      swap1\n      dup1\n      calldataload\n      swap1\n      0x20\n      add\n      swap1\n      swap3\n      swap2\n      swap1\n      pop\n      pop\n      pop\n      tag_60\n      jump\t// in\n    tag_58:\n      mload(0x40)\n      dup1\n      dup4\n      dup2\n      mstore\n      0x20\n      add\n      dup3\n      dup2\n      mstore\n      0x20\n      add\n      swap3\n      pop\n      pop\n      pop\n      mload(0x40)\n      dup1\n      swap2\n      sub\n      swap1\n      return\n        /* \"HeiswapV0.sol\":5875:6013  function publicKey(uint256 privKey) public pure... */\n    tag_16:\n      tag_61\n      0x04\n      dup1\n      calldatasize\n      sub\n        /* \"--CODEGEN--\":13:15   */\n      0x20\n        /* \"--CODEGEN--\":8:11   */\n      dup2\n        /* \"--CODEGEN--\":5:16   */\n      lt\n        /* \"--CODEGEN--\":2:4   */\n      iszero\n      tag_62\n      jumpi\n        /* \"--CODEGEN--\":29:30   */\n      0x00\n        /* \"--CODEGEN--\":26:27   */\n      dup1\n        /* \"--CODEGEN--\":19:31   */\n      revert\n        /* \"--CODEGEN--\":2:4   */\n    tag_62:\n        /* \"HeiswapV0.sol\":5875:6013  function publicKey(uint256 privKey) public pure... */\n      dup2\n      add\n      swap1\n      dup1\n      dup1\n      calldataload\n      swap1\n      0x20\n      add\n      swap1\n      swap3\n      swap2\n      swap1\n      pop\n      pop\n      pop\n      tag_63\n      jump\t// in\n    tag_61:\n      mload(0x40)\n      dup1\n      dup4\n      dup2\n      mstore\n      0x20\n      add\n      dup3\n      dup2\n      mstore\n      0x20\n      add\n      swap3\n      pop\n      pop\n      pop\n      mload(0x40)\n      dup1\n      swap2\n      sub\n      swap1\n      return\n        /* \"HeiswapV0.sol\":1657:2065  function _inverse(uint256 val) public pure... */\n    tag_17:\n      tag_64\n      0x04\n      dup1\n      calldatasize\n      sub\n        /* \"--CODEGEN--\":13:15   */\n      0x20\n        /* \"--CODEGEN--\":8:11   */\n      dup2\n        /* \"--CODEGEN--\":5:16   */\n      lt\n        /* \"--CODEGEN--\":2:4   */\n      iszero\n      tag_65\n      jumpi\n        /* \"--CODEGEN--\":29:30   */\n      0x00\n        /* \"--CODEGEN--\":26:27   */\n      dup1\n        /* \"--CODEGEN--\":19:31   */\n      revert\n        /* \"--CODEGEN--\":2:4   */\n    tag_65:\n        /* \"HeiswapV0.sol\":1657:2065  function _inverse(uint256 val) public pure... */\n      dup2\n      add\n      swap1\n      dup1\n      dup1\n      calldataload\n      swap1\n      0x20\n      add\n      swap1\n      swap3\n      swap2\n      swap1\n      pop\n      pop\n      pop\n      tag_66\n      jump\t// in\n    tag_64:\n      mload(0x40)\n      dup1\n      dup3\n      dup2\n      mstore\n      0x20\n      add\n      swap2\n      pop\n      pop\n      mload(0x40)\n      dup1\n      swap2\n      sub\n      swap1\n      return\n        /* \"HeiswapV0.sol\":3514:4191  function _ecMul(uint256 d, uint256 x1, uint256 y1, uint256 z1) public pure... */\n    tag_18:\n      tag_67\n      0x04\n      dup1\n      calldatasize\n      sub\n        /* \"--CODEGEN--\":13:16   */\n      0x80\n        /* \"--CODEGEN--\":8:11   */\n      dup2\n        /* \"--CODEGEN--\":5:17   */\n      lt\n        /* \"--CODEGEN--\":2:4   */\n      iszero\n      tag_68\n      jumpi\n        /* \"--CODEGEN--\":30:31   */\n      0x00\n        /* \"--CODEGEN--\":27:28   */\n      dup1\n        /* \"--CODEGEN--\":20:32   */\n      revert\n        /* \"--CODEGEN--\":2:4   */\n    tag_68:\n        /* \"HeiswapV0.sol\":3514:4191  function _ecMul(uint256 d, uint256 x1, uint256 y1, uint256 z1) public pure... */\n      dup2\n      add\n      swap1\n      dup1\n      dup1\n      calldataload\n      swap1\n      0x20\n      add\n      swap1\n      swap3\n      swap2\n      swap1\n      dup1\n      calldataload\n      swap1\n      0x20\n      add\n      swap1\n      swap3\n      swap2\n      swap1\n      dup1\n      calldataload\n      swap1\n      0x20\n      add\n      swap1\n      swap3\n      swap2\n      swap1\n      dup1\n      calldataload\n      swap1\n      0x20\n      add\n      swap1\n      swap3\n      swap2\n      swap1\n      pop\n      pop\n      pop\n      tag_69\n      jump\t// in\n    tag_67:\n      mload(0x40)\n      dup1\n      dup5\n      dup2\n      mstore\n      0x20\n      add\n      dup4\n      dup2\n      mstore\n      0x20\n      add\n      dup3\n      dup2\n      mstore\n      0x20\n      add\n      swap4\n      pop\n      pop\n      pop\n      pop\n      mload(0x40)\n      dup1\n      swap2\n      sub\n      swap1\n      return\n        /* \"HeiswapV0.sol\":5067:5459  function sbmul_add_mul(uint256 _s, uint256[2] memory B, uint256 c)... */\n    tag_19:\n      tag_70\n      0x04\n      dup1\n      calldatasize\n      sub\n        /* \"--CODEGEN--\":13:16   */\n      0x80\n        /* \"--CODEGEN--\":8:11   */\n      dup2\n        /* \"--CODEGEN--\":5:17   */\n      lt\n        /* \"--CODEGEN--\":2:4   */\n      iszero\n      tag_71\n      jumpi\n        /* \"--CODEGEN--\":30:31   */\n      0x00\n        /* \"--CODEGEN--\":27:28   */\n      dup1\n        /* \"--CODEGEN--\":20:32   */\n      revert\n        /* \"--CODEGEN--\":2:4   */\n    tag_71:\n        /* \"HeiswapV0.sol\":5067:5459  function sbmul_add_mul(uint256 _s, uint256[2] memory B, uint256 c)... */\n      dup2\n      add\n      swap1\n      dup1\n      dup1\n      calldataload\n      swap1\n      0x20\n      add\n      swap1\n      swap3\n      swap2\n      swap1\n      dup1\n      0x40\n      add\n      swap1\n      0x02\n      dup1\n      0x20\n      mul\n      mload(0x40)\n      swap1\n      dup2\n      add\n      0x40\n      mstore\n      dup1\n      swap3\n      swap2\n      swap1\n      dup3\n      mul(0x20, 0x02)\n        /* \"--CODEGEN--\":30:33   */\n      dup1\n        /* \"--CODEGEN--\":22:28   */\n      dup3\n        /* \"--CODEGEN--\":14:20   */\n      dup5\n        /* \"--CODEGEN--\":1:34   */\n      calldatacopy\n        /* \"--CODEGEN--\":99:100   */\n      0x00\n        /* \"--CODEGEN--\":93:96   */\n      dup2\n        /* \"--CODEGEN--\":85:91   */\n      dup5\n        /* \"--CODEGEN--\":81:97   */\n      add\n        /* \"--CODEGEN--\":74:101   */\n      mstore\n        /* \"--CODEGEN--\":137:141   */\n      0x1f\n        /* \"--CODEGEN--\":133:142   */\n      not\n        /* \"--CODEGEN--\":126:130   */\n      0x1f\n        /* \"--CODEGEN--\":121:124   */\n      dup3\n        /* \"--CODEGEN--\":117:131   */\n      add\n        /* \"--CODEGEN--\":113:143   */\n      and\n        /* \"--CODEGEN--\":106:143   */\n      swap1\n      pop\n        /* \"--CODEGEN--\":169:172   */\n      dup1\n        /* \"--CODEGEN--\":161:167   */\n      dup4\n        /* \"--CODEGEN--\":157:173   */\n      add\n        /* \"--CODEGEN--\":147:173   */\n      swap3\n      pop\n        /* \"HeiswapV0.sol\":5067:5459  function sbmul_add_mul(uint256 _s, uint256[2] memory B, uint256 c)... */\n      pop\n      pop\n      pop\n      pop\n      pop\n      swap2\n      swap3\n      swap2\n      swap3\n      swap1\n      dup1\n      calldataload\n      swap1\n      0x20\n      add\n      swap1\n      swap3\n      swap2\n      swap1\n      pop\n      pop\n      pop\n      tag_72\n      jump\t// in\n    tag_70:\n      mload(0x40)\n      dup1\n      dup3\n      0xffffffffffffffffffffffffffffffffffffffff\n      and\n      0xffffffffffffffffffffffffffffffffffffffff\n      and\n      dup2\n      mstore\n      0x20\n      add\n      swap2\n      pop\n      pop\n      mload(0x40)\n      dup1\n      swap2\n      sub\n      swap1\n      return\n        /* \"HeiswapV0.sol\":4197:4514  function ecadd(... */\n    tag_20:\n      tag_73\n      0x04\n      dup1\n      calldatasize\n      sub\n        /* \"--CODEGEN--\":13:16   */\n      0x80\n        /* \"--CODEGEN--\":8:11   */\n      dup2\n        /* \"--CODEGEN--\":5:17   */\n      lt\n        /* \"--CODEGEN--\":2:4   */\n      iszero\n      tag_74\n      jumpi\n        /* \"--CODEGEN--\":30:31   */\n      0x00\n        /* \"--CODEGEN--\":27:28   */\n      dup1\n        /* \"--CODEGEN--\":20:32   */\n      revert\n        /* \"--CODEGEN--\":2:4   */\n    tag_74:\n        /* \"HeiswapV0.sol\":4197:4514  function ecadd(... */\n      dup2\n      add\n      swap1\n      dup1\n      dup1\n      calldataload\n      swap1\n      0x20\n      add\n      swap1\n      swap3\n      swap2\n      swap1\n      dup1\n      calldataload\n      swap1\n      0x20\n      add\n      swap1\n      swap3\n      swap2\n      swap1\n      dup1\n      calldataload\n      swap1\n      0x20\n      add\n      swap1\n      swap3\n      swap2\n      swap1\n      dup1\n      calldataload\n      swap1\n      0x20\n      add\n      swap1\n      swap3\n      swap2\n      swap1\n      pop\n      pop\n      pop\n      tag_75\n      jump\t// in\n    tag_73:\n      mload(0x40)\n      dup1\n      dup4\n      dup2\n      mstore\n      0x20\n      add\n      dup3\n      dup2\n      mstore\n      0x20\n      add\n      swap3\n      pop\n      pop\n      pop\n      mload(0x40)\n      dup1\n      swap2\n      sub\n      swap1\n      return\n        /* \"HeiswapV0.sol\":2071:3317  function _ecAdd(... */\n    tag_21:\n      tag_76\n      0x04\n      dup1\n      calldatasize\n      sub\n        /* \"--CODEGEN--\":13:16   */\n      0xc0\n        /* \"--CODEGEN--\":8:11   */\n      dup2\n        /* \"--CODEGEN--\":5:17   */\n      lt\n        /* \"--CODEGEN--\":2:4   */\n      iszero\n      tag_77\n      jumpi\n        /* \"--CODEGEN--\":30:31   */\n      0x00\n        /* \"--CODEGEN--\":27:28   */\n      dup1\n        /* \"--CODEGEN--\":20:32   */\n      revert\n        /* \"--CODEGEN--\":2:4   */\n    tag_77:\n        /* \"HeiswapV0.sol\":2071:3317  function _ecAdd(... */\n      dup2\n      add\n      swap1\n      dup1\n      dup1\n      calldataload\n      swap1\n      0x20\n      add\n      swap1\n      swap3\n      swap2\n      swap1\n      dup1\n      calldataload\n      swap1\n      0x20\n      add\n      swap1\n      swap3\n      swap2\n      swap1\n      dup1\n      calldataload\n      swap1\n      0x20\n      add\n      swap1\n      swap3\n      swap2\n      swap1\n      dup1\n      calldataload\n      swap1\n      0x20\n      add\n      swap1\n      swap3\n      swap2\n      swap1\n      dup1\n      calldataload\n      swap1\n      0x20\n      add\n      swap1\n      swap3\n      swap2\n      swap1\n      dup1\n      calldataload\n      swap1\n      0x20\n      add\n      swap1\n      swap3\n      swap2\n      swap1\n      pop\n      pop\n      pop\n      tag_78\n      jump\t// in\n    tag_76:\n      mload(0x40)\n      dup1\n      dup5\n      dup2\n      mstore\n      0x20\n      add\n      dup4\n      dup2\n      mstore\n      0x20\n      add\n      dup3\n      dup2\n      mstore\n      0x20\n      add\n      swap4\n      pop\n      pop\n      pop\n      pop\n      mload(0x40)\n      dup1\n      swap2\n      sub\n      swap1\n      return\n        /* \"HeiswapV0.sol\":6185:6472  function deriveKey(uint256 privKey, uint256 pubX, uint256 pubY) public pure... */\n    tag_22:\n      tag_79\n      0x04\n      dup1\n      calldatasize\n      sub\n        /* \"--CODEGEN--\":13:15   */\n      0x60\n        /* \"--CODEGEN--\":8:11   */\n      dup2\n        /* \"--CODEGEN--\":5:16   */\n      lt\n        /* \"--CODEGEN--\":2:4   */\n      iszero\n      tag_80\n      jumpi\n        /* \"--CODEGEN--\":29:30   */\n      0x00\n        /* \"--CODEGEN--\":26:27   */\n      dup1\n        /* \"--CODEGEN--\":19:31   */\n      revert\n        /* \"--CODEGEN--\":2:4   */\n    tag_80:\n        /* \"HeiswapV0.sol\":6185:6472  function deriveKey(uint256 privKey, uint256 pubX, uint256 pubY) public pure... */\n      dup2\n      add\n      swap1\n      dup1\n      dup1\n      calldataload\n      swap1\n      0x20\n      add\n      swap1\n      swap3\n      swap2\n      swap1\n      dup1\n      calldataload\n      swap1\n      0x20\n      add\n      swap1\n      swap3\n      swap2\n      swap1\n      dup1\n      calldataload\n      swap1\n      0x20\n      add\n      swap1\n      swap3\n      swap2\n      swap1\n      pop\n      pop\n      pop\n      tag_81\n      jump\t// in\n    tag_79:\n      mload(0x40)\n      dup1\n      dup4\n      dup2\n      mstore\n      0x20\n      add\n      dup3\n      dup2\n      mstore\n      0x20\n      add\n      swap3\n      pop\n      pop\n      pop\n      mload(0x40)\n      dup1\n      swap2\n      sub\n      swap1\n      return\n        /* \"HeiswapV0.sol\":3323:3508  function _ecDouble(uint256 x1, uint256 y1, uint256 z1) public pure... */\n    tag_23:\n      tag_82\n      0x04\n      dup1\n      calldatasize\n      sub\n        /* \"--CODEGEN--\":13:15   */\n      0x60\n        /* \"--CODEGEN--\":8:11   */\n      dup2\n        /* \"--CODEGEN--\":5:16   */\n      lt\n        /* \"--CODEGEN--\":2:4   */\n      iszero\n      tag_83\n      jumpi\n        /* \"--CODEGEN--\":29:30   */\n      0x00\n        /* \"--CODEGEN--\":26:27   */\n      dup1\n        /* \"--CODEGEN--\":19:31   */\n      revert\n        /* \"--CODEGEN--\":2:4   */\n    tag_83:\n        /* \"HeiswapV0.sol\":3323:3508  function _ecDouble(uint256 x1, uint256 y1, uint256 z1) public pure... */\n      dup2\n      add\n      swap1\n      dup1\n      dup1\n      calldataload\n      swap1\n      0x20\n      add\n      swap1\n      swap3\n      swap2\n      swap1\n      dup1\n      calldataload\n      swap1\n      0x20\n      add\n      swap1\n      swap3\n      swap2\n      swap1\n      dup1\n      calldataload\n      swap1\n      0x20\n      add\n      swap1\n      swap3\n      swap2\n      swap1\n      pop\n      pop\n      pop\n      tag_84\n      jump\t// in\n    tag_82:\n      mload(0x40)\n      dup1\n      dup5\n      dup2\n      mstore\n      0x20\n      add\n      dup4\n      dup2\n      mstore\n      0x20\n      add\n      dup3\n      dup2\n      mstore\n      0x20\n      add\n      swap4\n      pop\n      pop\n      pop\n      pop\n      mload(0x40)\n      dup1\n      swap2\n      sub\n      swap1\n      return\n        /* \"HeiswapV0.sol\":432:777  function _jAdd(... */\n    tag_29:\n        /* \"HeiswapV0.sol\":557:567  uint256 x3 */\n      0x00\n        /* \"HeiswapV0.sol\":569:579  uint256 z3 */\n      dup1\n        /* \"HeiswapV0.sol\":289:355  0xFFFFFFFFFFFFFFFFFFFFFFFFFFFFFFFFFFFFFFFFFFFFFFFFFFFFFFFEFFFFFC2F */\n      0xfffffffffffffffffffffffffffffffffffffffffffffffffffffffefffffc2f\n        /* \"HeiswapV0.sol\":620:729  addmod(... */\n      dup1\n      tag_86\n      jumpi\n      invalid\n    tag_86:\n        /* \"HeiswapV0.sol\":289:355  0xFFFFFFFFFFFFFFFFFFFFFFFFFFFFFFFFFFFFFFFFFFFFFFFFFFFFFFFEFFFFFC2F */\n      0xfffffffffffffffffffffffffffffffffffffffffffffffffffffffefffffc2f\n        /* \"HeiswapV0.sol\":679:696  mulmod(x2, z1, n) */\n      dup1\n      tag_87\n      jumpi\n      invalid\n    tag_87:\n        /* \"HeiswapV0.sol\":690:692  z1 */\n      dup7\n        /* \"HeiswapV0.sol\":686:688  x2 */\n      dup7\n        /* \"HeiswapV0.sol\":679:696  mulmod(x2, z1, n) */\n      mulmod\n        /* \"HeiswapV0.sol\":289:355  0xFFFFFFFFFFFFFFFFFFFFFFFFFFFFFFFFFFFFFFFFFFFFFFFFFFFFFFFEFFFFFC2F */\n      0xfffffffffffffffffffffffffffffffffffffffffffffffffffffffefffffc2f\n        /* \"HeiswapV0.sol\":644:661  mulmod(z2, x1, n) */\n      dup1\n      tag_88\n      jumpi\n      invalid\n    tag_88:\n        /* \"HeiswapV0.sol\":655:657  x1 */\n      dup9\n        /* \"HeiswapV0.sol\":651:653  z2 */\n      dup7\n        /* \"HeiswapV0.sol\":644:661  mulmod(z2, x1, n) */\n      mulmod\n        /* \"HeiswapV0.sol\":620:729  addmod(... */\n      addmod\n        /* \"HeiswapV0.sol\":289:355  0xFFFFFFFFFFFFFFFFFFFFFFFFFFFFFFFFFFFFFFFFFFFFFFFFFFFFFFFEFFFFFC2F */\n      0xfffffffffffffffffffffffffffffffffffffffffffffffffffffffefffffc2f\n        /* \"HeiswapV0.sol\":743:760  mulmod(z1, z2, n) */\n      dup1\n      tag_89\n      jumpi\n      invalid\n    tag_89:\n        /* \"HeiswapV0.sol\":754:756  z2 */\n      dup5\n        /* \"HeiswapV0.sol\":750:752  z1 */\n      dup8\n        /* \"HeiswapV0.sol\":743:760  mulmod(z1, z2, n) */\n      mulmod\n        /* \"HeiswapV0.sol\":595:770  (x3, z3) = (... */\n      dup1\n      swap3\n      pop\n      dup2\n      swap4\n      pop\n      pop\n      pop\n        /* \"HeiswapV0.sol\":432:777  function _jAdd(... */\n      swap5\n      pop\n      swap5\n      swap3\n      pop\n      pop\n      pop\n      jump\t// out\n        /* \"HeiswapV0.sol\":5631:5869  function ecmulVerify(uint256 x1, uint256 y1, uint256 scalar, uint256 qx, uint256 qy) public pure... */\n    tag_32:\n        /* \"HeiswapV0.sol\":5744:5748  bool */\n      0x00\n        /* \"HeiswapV0.sol\":5764:5778  address signer */\n      dup1\n        /* \"HeiswapV0.sol\":5781:5815  sbmul_add_mul(0, [x1, y1], scalar) */\n      tag_91\n        /* \"HeiswapV0.sol\":5795:5796  0 */\n      0x00\n        /* \"HeiswapV0.sol\":5781:5815  sbmul_add_mul(0, [x1, y1], scalar) */\n      mload(0x40)\n      dup1\n      0x40\n      add\n      0x40\n      mstore\n      dup1\n        /* \"HeiswapV0.sol\":5799:5801  x1 */\n      dup11\n        /* \"HeiswapV0.sol\":5781:5815  sbmul_add_mul(0, [x1, y1], scalar) */\n      dup2\n      mstore\n      0x20\n      add\n        /* \"HeiswapV0.sol\":5803:5805  y1 */\n      dup10\n        /* \"HeiswapV0.sol\":5781:5815  sbmul_add_mul(0, [x1, y1], scalar) */\n      dup2\n      mstore\n      pop\n        /* \"HeiswapV0.sol\":5808:5814  scalar */\n      dup8\n        /* \"HeiswapV0.sol\":5781:5794  sbmul_add_mul */\n      tag_72\n        /* \"HeiswapV0.sol\":5781:5815  sbmul_add_mul(0, [x1, y1], scalar) */\n      jump\t// in\n    tag_91:\n        /* \"HeiswapV0.sol\":5764:5815  address signer = sbmul_add_mul(0, [x1, y1], scalar) */\n      swap1\n      pop\n        /* \"HeiswapV0.sol\":5856:5862  signer */\n      dup1\n        /* \"HeiswapV0.sol\":5832:5862  point_hash([qx, qy]) == signer */\n      0xffffffffffffffffffffffffffffffffffffffff\n      and\n        /* \"HeiswapV0.sol\":5832:5852  point_hash([qx, qy]) */\n      tag_92\n      mload(0x40)\n      dup1\n      0x40\n      add\n      0x40\n      mstore\n      dup1\n        /* \"HeiswapV0.sol\":5844:5846  qx */\n      dup8\n        /* \"HeiswapV0.sol\":5832:5852  point_hash([qx, qy]) */\n      dup2\n      mstore\n      0x20\n      add\n        /* \"HeiswapV0.sol\":5848:5850  qy */\n      dup7\n        /* \"HeiswapV0.sol\":5832:5852  point_hash([qx, qy]) */\n      dup2\n      mstore\n      pop\n        /* \"HeiswapV0.sol\":5832:5842  point_hash */\n      tag_46\n        /* \"HeiswapV0.sol\":5832:5852  point_hash([qx, qy]) */\n      jump\t// in\n    tag_92:\n        /* \"HeiswapV0.sol\":5832:5862  point_hash([qx, qy]) == signer */\n      0xffffffffffffffffffffffffffffffffffffffff\n      and\n      eq\n        /* \"HeiswapV0.sol\":5825:5862  return point_hash([qx, qy]) == signer */\n      swap2\n      pop\n      pop\n        /* \"HeiswapV0.sol\":5631:5869  function ecmulVerify(uint256 x1, uint256 y1, uint256 scalar, uint256 qx, uint256 qy) public pure... */\n      swap6\n      swap5\n      pop\n      pop\n      pop\n      pop\n      pop\n      jump\t// out\n        /* \"HeiswapV0.sol\":59:154  uint256 constant public gx = 0x79BE667EF9DCBBAC55A06295CE870B07029BFCDB2DCE28D959F2815B16F81798 */\n    tag_34:\n        /* \"HeiswapV0.sol\":88:154  0x79BE667EF9DCBBAC55A06295CE870B07029BFCDB2DCE28D959F2815B16F81798 */\n      0x79be667ef9dcbbac55a06295ce870b07029bfcdb2dce28d959f2815b16f81798\n        /* \"HeiswapV0.sol\":59:154  uint256 constant public gx = 0x79BE667EF9DCBBAC55A06295CE870B07029BFCDB2DCE28D959F2815B16F81798 */\n      dup2\n      jump\t// out\n        /* \"HeiswapV0.sol\":361:390  uint256 constant public a = 0 */\n    tag_36:\n        /* \"HeiswapV0.sol\":389:390  0 */\n      0x00\n        /* \"HeiswapV0.sol\":361:390  uint256 constant public a = 0 */\n      dup2\n      jump\t// out\n        /* \"HeiswapV0.sol\":783:1132  function _jSub(... */\n    tag_39:\n        /* \"HeiswapV0.sol\":908:918  uint256 x3 */\n      0x00\n        /* \"HeiswapV0.sol\":920:930  uint256 z3 */\n      dup1\n        /* \"HeiswapV0.sol\":289:355  0xFFFFFFFFFFFFFFFFFFFFFFFFFFFFFFFFFFFFFFFFFFFFFFFFFFFFFFFEFFFFFC2F */\n      0xfffffffffffffffffffffffffffffffffffffffffffffffffffffffefffffc2f\n        /* \"HeiswapV0.sol\":971:1084  addmod(... */\n      dup1\n      tag_94\n      jumpi\n      invalid\n    tag_94:\n        /* \"HeiswapV0.sol\":289:355  0xFFFFFFFFFFFFFFFFFFFFFFFFFFFFFFFFFFFFFFFFFFFFFFFFFFFFFFFEFFFFFC2F */\n      0xfffffffffffffffffffffffffffffffffffffffffffffffffffffffefffffc2f\n        /* \"HeiswapV0.sol\":1030:1051  mulmod(n - x2, z1, n) */\n      dup1\n      tag_95\n      jumpi\n      invalid\n    tag_95:\n        /* \"HeiswapV0.sol\":1045:1047  z1 */\n      dup7\n        /* \"HeiswapV0.sol\":1041:1043  x2 */\n      dup7\n        /* \"HeiswapV0.sol\":289:355  0xFFFFFFFFFFFFFFFFFFFFFFFFFFFFFFFFFFFFFFFFFFFFFFFFFFFFFFFEFFFFFC2F */\n      0xfffffffffffffffffffffffffffffffffffffffffffffffffffffffefffffc2f\n        /* \"HeiswapV0.sol\":1037:1043  n - x2 */\n      sub\n        /* \"HeiswapV0.sol\":1030:1051  mulmod(n - x2, z1, n) */\n      mulmod\n        /* \"HeiswapV0.sol\":289:355  0xFFFFFFFFFFFFFFFFFFFFFFFFFFFFFFFFFFFFFFFFFFFFFFFFFFFFFFFEFFFFFC2F */\n      0xfffffffffffffffffffffffffffffffffffffffffffffffffffffffefffffc2f\n        /* \"HeiswapV0.sol\":995:1012  mulmod(z2, x1, n) */\n      dup1\n      tag_96\n      jumpi\n      invalid\n    tag_96:\n        /* \"HeiswapV0.sol\":1006:1008  x1 */\n      dup9\n        /* \"HeiswapV0.sol\":1002:1004  z2 */\n      dup7\n        /* \"HeiswapV0.sol\":995:1012  mulmod(z2, x1, n) */\n      mulmod\n        /* \"HeiswapV0.sol\":971:1084  addmod(... */\n      addmod\n        /* \"HeiswapV0.sol\":289:355  0xFFFFFFFFFFFFFFFFFFFFFFFFFFFFFFFFFFFFFFFFFFFFFFFFFFFFFFFEFFFFFC2F */\n      0xfffffffffffffffffffffffffffffffffffffffffffffffffffffffefffffc2f\n        /* \"HeiswapV0.sol\":1098:1115  mulmod(z1, z2, n) */\n      dup1\n      tag_97\n      jumpi\n      invalid\n    tag_97:\n        /* \"HeiswapV0.sol\":1109:1111  z2 */\n      dup5\n        /* \"HeiswapV0.sol\":1105:1107  z1 */\n      dup8\n        /* \"HeiswapV0.sol\":1098:1115  mulmod(z1, z2, n) */\n      mulmod\n        /* \"HeiswapV0.sol\":946:1125  (x3, z3) = (... */\n      dup1\n      swap3\n      pop\n      dup2\n      swap4\n      pop\n      pop\n      pop\n        /* \"HeiswapV0.sol\":783:1132  function _jSub(... */\n      swap5\n      pop\n      swap5\n      swap3\n      pop\n      pop\n      pop\n      jump\t// out\n        /* \"HeiswapV0.sol\":160:255  uint256 constant public gy = 0x483ADA7726A3C4655DA4FBFC0E1108A8FD17B448A68554199C47D08FFB10D4B8 */\n    tag_41:\n        /* \"HeiswapV0.sol\":189:255  0x483ADA7726A3C4655DA4FBFC0E1108A8FD17B448A68554199C47D08FFB10D4B8 */\n      0x483ada7726a3c4655da4fbfc0e1108a8fd17b448a68554199c47d08ffb10d4b8\n        /* \"HeiswapV0.sol\":160:255  uint256 constant public gy = 0x483ADA7726A3C4655DA4FBFC0E1108A8FD17B448A68554199C47D08FFB10D4B8 */\n      dup2\n      jump\t// out\n        /* \"HeiswapV0.sol\":261:355  uint256 constant public n = 0xFFFFFFFFFFFFFFFFFFFFFFFFFFFFFFFFFFFFFFFFFFFFFFFFFFFFFFFEFFFFFC2F */\n    tag_43:\n        /* \"HeiswapV0.sol\":289:355  0xFFFFFFFFFFFFFFFFFFFFFFFFFFFFFFFFFFFFFFFFFFFFFFFFFFFFFFFEFFFFFC2F */\n      0xfffffffffffffffffffffffffffffffffffffffffffffffffffffffefffffc2f\n        /* \"HeiswapV0.sol\":261:355  uint256 constant public n = 0xFFFFFFFFFFFFFFFFFFFFFFFFFFFFFFFFFFFFFFFFFFFFFFFFFFFFFFFEFFFFFC2F */\n      dup2\n      jump\t// out\n        /* \"HeiswapV0.sol\":4800:5024  function point_hash( uint256[2] memory point )... */\n    tag_46:\n        /* \"HeiswapV0.sol\":4875:4882  address */\n      0x00\n        /* \"HeiswapV0.sol\":4972:5016  0x00FFFFFFFFFFFFFFFFFFFFFFFFFFFFFFFFFFFFFFFF */\n      0xffffffffffffffffffffffffffffffffffffffff\n        /* \"HeiswapV0.sol\":4948:4953  point */\n      dup3\n        /* \"HeiswapV0.sol\":4954:4955  0 */\n      0x00\n        /* \"HeiswapV0.sol\":4948:4956  point[0] */\n      0x02\n      dup2\n      lt\n      tag_99\n      jumpi\n      invalid\n    tag_99:\n      0x20\n      mul\n      add\n      mload\n        /* \"HeiswapV0.sol\":4958:4963  point */\n      dup4\n        /* \"HeiswapV0.sol\":4964:4965  1 */\n      0x01\n        /* \"HeiswapV0.sol\":4958:4966  point[1] */\n      0x02\n      dup2\n      lt\n      tag_100\n      jumpi\n      invalid\n    tag_100:\n      0x20\n      mul\n      add\n      mload\n        /* \"HeiswapV0.sol\":4931:4967  abi.encodePacked(point[0], point[1]) */\n      add(0x20, mload(0x40))\n      dup1\n      dup4\n      dup2\n      mstore\n      0x20\n      add\n      dup3\n      dup2\n      mstore\n      0x20\n      add\n      swap3\n      pop\n      pop\n      pop\n      mload(0x40)\n        /* \"--CODEGEN--\":49:53   */\n      0x20\n        /* \"--CODEGEN--\":39:46   */\n      dup2\n        /* \"--CODEGEN--\":30:37   */\n      dup4\n        /* \"--CODEGEN--\":26:47   */\n      sub\n        /* \"--CODEGEN--\":22:54   */\n      sub\n        /* \"--CODEGEN--\":13:20   */\n      dup2\n        /* \"--CODEGEN--\":6:55   */\n      mstore\n        /* \"HeiswapV0.sol\":4931:4967  abi.encodePacked(point[0], point[1]) */\n      swap1\n      0x40\n      mstore\n        /* \"HeiswapV0.sol\":4921:4968  keccak256(abi.encodePacked(point[0], point[1])) */\n      dup1\n      mload\n      swap1\n      0x20\n      add\n      keccak256\n        /* \"HeiswapV0.sol\":4913:4969  uint256(keccak256(abi.encodePacked(point[0], point[1]))) */\n      0x00\n      shr\n        /* \"HeiswapV0.sol\":4913:5016  uint256(keccak256(abi.encodePacked(point[0], point[1]))) & 0x00FFFFFFFFFFFFFFFFFFFFFFFFFFFFFFFFFFFFFFFF */\n      and\n        /* \"HeiswapV0.sol\":4898:5017  return address(uint256(keccak256(abi.encodePacked(point[0], point[1]))) & 0x00FFFFFFFFFFFFFFFFFFFFFFFFFFFFFFFFFFFFFFFF) */\n      swap1\n      pop\n        /* \"HeiswapV0.sol\":4800:5024  function point_hash( uint256[2] memory point )... */\n      swap2\n      swap1\n      pop\n      jump\t// out\n        /* \"HeiswapV0.sol\":396:425  uint256 constant public b = 7 */\n    tag_48:\n        /* \"HeiswapV0.sol\":424:425  7 */\n      0x07\n        /* \"HeiswapV0.sol\":396:425  uint256 constant public b = 7 */\n      dup2\n      jump\t// out\n        /* \"HeiswapV0.sol\":1138:1391  function _jMul(... */\n    tag_51:\n        /* \"HeiswapV0.sol\":1263:1273  uint256 x3 */\n      0x00\n        /* \"HeiswapV0.sol\":1275:1285  uint256 z3 */\n      dup1\n        /* \"HeiswapV0.sol\":289:355  0xFFFFFFFFFFFFFFFFFFFFFFFFFFFFFFFFFFFFFFFFFFFFFFFFFFFFFFFEFFFFFC2F */\n      0xfffffffffffffffffffffffffffffffffffffffffffffffffffffffefffffc2f\n        /* \"HeiswapV0.sol\":1326:1343  mulmod(x1, x2, n) */\n      dup1\n      tag_102\n      jumpi\n      invalid\n    tag_102:\n        /* \"HeiswapV0.sol\":1337:1339  x2 */\n      dup5\n        /* \"HeiswapV0.sol\":1333:1335  x1 */\n      dup8\n        /* \"HeiswapV0.sol\":1326:1343  mulmod(x1, x2, n) */\n      mulmod\n        /* \"HeiswapV0.sol\":289:355  0xFFFFFFFFFFFFFFFFFFFFFFFFFFFFFFFFFFFFFFFFFFFFFFFFFFFFFFFEFFFFFC2F */\n      0xfffffffffffffffffffffffffffffffffffffffffffffffffffffffefffffc2f\n        /* \"HeiswapV0.sol\":1357:1374  mulmod(z1, z2, n) */\n      dup1\n      tag_103\n      jumpi\n      invalid\n    tag_103:\n        /* \"HeiswapV0.sol\":1368:1370  z2 */\n      dup5\n        /* \"HeiswapV0.sol\":1364:1366  z1 */\n      dup8\n        /* \"HeiswapV0.sol\":1357:1374  mulmod(z1, z2, n) */\n      mulmod\n        /* \"HeiswapV0.sol\":1301:1384  (x3, z3) = (... */\n      dup1\n      swap3\n      pop\n      dup2\n      swap4\n      pop\n      pop\n      pop\n        /* \"HeiswapV0.sol\":1138:1391  function _jMul(... */\n      swap5\n      pop\n      swap5\n      swap3\n      pop\n      pop\n      pop\n      jump\t// out\n        /* \"HeiswapV0.sol\":1397:1651  function _jDiv(... */\n    tag_54:\n        /* \"HeiswapV0.sol\":1523:1533  uint256 x3 */\n      0x00\n        /* \"HeiswapV0.sol\":1535:1545  uint256 z3 */\n      dup1\n        /* \"HeiswapV0.sol\":289:355  0xFFFFFFFFFFFFFFFFFFFFFFFFFFFFFFFFFFFFFFFFFFFFFFFFFFFFFFFEFFFFFC2F */\n      0xfffffffffffffffffffffffffffffffffffffffffffffffffffffffefffffc2f\n        /* \"HeiswapV0.sol\":1586:1603  mulmod(x1, z2, n) */\n      dup1\n      tag_105\n      jumpi\n      invalid\n    tag_105:\n        /* \"HeiswapV0.sol\":1597:1599  z2 */\n      dup4\n        /* \"HeiswapV0.sol\":1593:1595  x1 */\n      dup8\n        /* \"HeiswapV0.sol\":1586:1603  mulmod(x1, z2, n) */\n      mulmod\n        /* \"HeiswapV0.sol\":289:355  0xFFFFFFFFFFFFFFFFFFFFFFFFFFFFFFFFFFFFFFFFFFFFFFFFFFFFFFFEFFFFFC2F */\n      0xfffffffffffffffffffffffffffffffffffffffffffffffffffffffefffffc2f\n        /* \"HeiswapV0.sol\":1617:1634  mulmod(z1, x2, n) */\n      dup1\n      tag_106\n      jumpi\n      invalid\n    tag_106:\n        /* \"HeiswapV0.sol\":1628:1630  x2 */\n      dup6\n        /* \"HeiswapV0.sol\":1624:1626  z1 */\n      dup8\n        /* \"HeiswapV0.sol\":1617:1634  mulmod(z1, x2, n) */\n      mulmod\n        /* \"HeiswapV0.sol\":1561:1644  (x3, z3) = (... */\n      dup1\n      swap3\n      pop\n      dup2\n      swap4\n      pop\n      pop\n      pop\n        /* \"HeiswapV0.sol\":1397:1651  function _jDiv(... */\n      swap5\n      pop\n      swap5\n      swap3\n      pop\n      pop\n      pop\n      jump\t// out\n        /* \"HeiswapV0.sol\":6019:6179  function publicKeyVerify(uint256 privKey, uint256 x, uint256 y) public pure... */\n    tag_57:\n        /* \"HeiswapV0.sol\":6111:6115  bool */\n      0x00\n        /* \"HeiswapV0.sol\":6138:6172  ecmulVerify(gx, gy, privKey, x, y) */\n      tag_108\n        /* \"HeiswapV0.sol\":88:154  0x79BE667EF9DCBBAC55A06295CE870B07029BFCDB2DCE28D959F2815B16F81798 */\n      0x79be667ef9dcbbac55a06295ce870b07029bfcdb2dce28d959f2815b16f81798\n        /* \"HeiswapV0.sol\":189:255  0x483ADA7726A3C4655DA4FBFC0E1108A8FD17B448A68554199C47D08FFB10D4B8 */\n      0x483ada7726a3c4655da4fbfc0e1108a8fd17b448a68554199c47d08ffb10d4b8\n        /* \"HeiswapV0.sol\":6158:6165  privKey */\n      dup7\n        /* \"HeiswapV0.sol\":6167:6168  x */\n      dup7\n        /* \"HeiswapV0.sol\":6170:6171  y */\n      dup7\n        /* \"HeiswapV0.sol\":6138:6149  ecmulVerify */\n      tag_32\n        /* \"HeiswapV0.sol\":6138:6172  ecmulVerify(gx, gy, privKey, x, y) */\n      jump\t// in\n    tag_108:\n        /* \"HeiswapV0.sol\":6131:6172  return ecmulVerify(gx, gy, privKey, x, y) */\n      swap1\n      pop\n        /* \"HeiswapV0.sol\":6019:6179  function publicKeyVerify(uint256 privKey, uint256 x, uint256 y) public pure... */\n      swap4\n      swap3\n      pop\n      pop\n      pop\n      jump\t// out\n        /* \"HeiswapV0.sol\":4520:4793  function ecmul(uint256 x1, uint256 y1, uint256 scalar) public pure... */\n    tag_60:\n        /* \"HeiswapV0.sol\":4603:4613  uint256 x2 */\n      0x00\n        /* \"HeiswapV0.sol\":4615:4625  uint256 y2 */\n      dup1\n        /* \"HeiswapV0.sol\":4641:4650  uint256 z */\n      0x00\n        /* \"HeiswapV0.sol\":4674:4699  _ecMul(scalar, x1, y1, 1) */\n      tag_110\n        /* \"HeiswapV0.sol\":4681:4687  scalar */\n      dup5\n        /* \"HeiswapV0.sol\":4689:4691  x1 */\n      dup8\n        /* \"HeiswapV0.sol\":4693:4695  y1 */\n      dup8\n        /* \"HeiswapV0.sol\":4697:4698  1 */\n      0x01\n        /* \"HeiswapV0.sol\":4674:4680  _ecMul */\n      tag_69\n        /* \"HeiswapV0.sol\":4674:4699  _ecMul(scalar, x1, y1, 1) */\n      jump\t// in\n    tag_110:\n        /* \"HeiswapV0.sol\":4660:4699  (x2, y2, z) = _ecMul(scalar, x1, y1, 1) */\n      dup1\n      swap4\n      pop\n      dup2\n      swap5\n      pop\n      dup3\n      swap6\n      pop\n      pop\n      pop\n      pop\n        /* \"HeiswapV0.sol\":4713:4724  _inverse(z) */\n      tag_111\n        /* \"HeiswapV0.sol\":4722:4723  z */\n      dup2\n        /* \"HeiswapV0.sol\":4713:4721  _inverse */\n      tag_66\n        /* \"HeiswapV0.sol\":4713:4724  _inverse(z) */\n      jump\t// in\n    tag_111:\n        /* \"HeiswapV0.sol\":4709:4724  z = _inverse(z) */\n      swap1\n      pop\n        /* \"HeiswapV0.sol\":289:355  0xFFFFFFFFFFFFFFFFFFFFFFFFFFFFFFFFFFFFFFFFFFFFFFFFFFFFFFFEFFFFFC2F */\n      0xfffffffffffffffffffffffffffffffffffffffffffffffffffffffefffffc2f\n        /* \"HeiswapV0.sol\":4739:4755  mulmod(x2, z, n) */\n      dup1\n      tag_112\n      jumpi\n      invalid\n    tag_112:\n        /* \"HeiswapV0.sol\":4750:4751  z */\n      dup2\n        /* \"HeiswapV0.sol\":4746:4748  x2 */\n      dup5\n        /* \"HeiswapV0.sol\":4739:4755  mulmod(x2, z, n) */\n      mulmod\n        /* \"HeiswapV0.sol\":4734:4755  x2 = mulmod(x2, z, n) */\n      swap3\n      pop\n        /* \"HeiswapV0.sol\":289:355  0xFFFFFFFFFFFFFFFFFFFFFFFFFFFFFFFFFFFFFFFFFFFFFFFFFFFFFFFEFFFFFC2F */\n      0xfffffffffffffffffffffffffffffffffffffffffffffffffffffffefffffc2f\n        /* \"HeiswapV0.sol\":4770:4786  mulmod(y2, z, n) */\n      dup1\n      tag_113\n      jumpi\n      invalid\n    tag_113:\n        /* \"HeiswapV0.sol\":4781:4782  z */\n      dup2\n        /* \"HeiswapV0.sol\":4777:4779  y2 */\n      dup4\n        /* \"HeiswapV0.sol\":4770:4786  mulmod(y2, z, n) */\n      mulmod\n        /* \"HeiswapV0.sol\":4765:4786  y2 = mulmod(y2, z, n) */\n      swap2\n      pop\n        /* \"HeiswapV0.sol\":4520:4793  function ecmul(uint256 x1, uint256 y1, uint256 scalar) public pure... */\n      pop\n      swap4\n      pop\n      swap4\n      swap2\n      pop\n      pop\n      jump\t// out\n        /* \"HeiswapV0.sol\":5875:6013  function publicKey(uint256 privKey) public pure... */\n    tag_63:\n        /* \"HeiswapV0.sol\":5939:5949  uint256 qx */\n      0x00\n        /* \"HeiswapV0.sol\":5951:5961  uint256 qy */\n      dup1\n        /* \"HeiswapV0.sol\":5984:6006  ecmul(gx, gy, privKey) */\n      tag_115\n        /* \"HeiswapV0.sol\":88:154  0x79BE667EF9DCBBAC55A06295CE870B07029BFCDB2DCE28D959F2815B16F81798 */\n      0x79be667ef9dcbbac55a06295ce870b07029bfcdb2dce28d959f2815b16f81798\n        /* \"HeiswapV0.sol\":189:255  0x483ADA7726A3C4655DA4FBFC0E1108A8FD17B448A68554199C47D08FFB10D4B8 */\n      0x483ada7726a3c4655da4fbfc0e1108a8fd17b448a68554199c47d08ffb10d4b8\n        /* \"HeiswapV0.sol\":5998:6005  privKey */\n      dup6\n        /* \"HeiswapV0.sol\":5984:5989  ecmul */\n      tag_60\n        /* \"HeiswapV0.sol\":5984:6006  ecmul(gx, gy, privKey) */\n      jump\t// in\n    tag_115:\n        /* \"HeiswapV0.sol\":5977:6006  return ecmul(gx, gy, privKey) */\n      swap2\n      pop\n      swap2\n      pop\n        /* \"HeiswapV0.sol\":5875:6013  function publicKey(uint256 privKey) public pure... */\n      swap2\n      pop\n      swap2\n      jump\t// out\n        /* \"HeiswapV0.sol\":1657:2065  function _inverse(uint256 val) public pure... */\n    tag_66:\n        /* \"HeiswapV0.sol\":1716:1730  uint256 invVal */\n      0x00\n        /* \"HeiswapV0.sol\":1746:1755  uint256 t */\n      dup1\n        /* \"HeiswapV0.sol\":1758:1759  0 */\n      0x00\n        /* \"HeiswapV0.sol\":1746:1759  uint256 t = 0 */\n      swap1\n      pop\n        /* \"HeiswapV0.sol\":1769:1781  uint256 newT */\n      0x00\n        /* \"HeiswapV0.sol\":1784:1785  1 */\n      0x01\n        /* \"HeiswapV0.sol\":1769:1785  uint256 newT = 1 */\n      swap1\n      pop\n        /* \"HeiswapV0.sol\":1795:1804  uint256 r */\n      0x00\n        /* \"HeiswapV0.sol\":289:355  0xFFFFFFFFFFFFFFFFFFFFFFFFFFFFFFFFFFFFFFFFFFFFFFFFFFFFFFFEFFFFFC2F */\n      0xfffffffffffffffffffffffffffffffffffffffffffffffffffffffefffffc2f\n        /* \"HeiswapV0.sol\":1795:1808  uint256 r = n */\n      swap1\n      pop\n        /* \"HeiswapV0.sol\":1818:1830  uint256 newR */\n      0x00\n        /* \"HeiswapV0.sol\":1833:1836  val */\n      dup6\n        /* \"HeiswapV0.sol\":1818:1836  uint256 newR = val */\n      swap1\n      pop\n        /* \"HeiswapV0.sol\":1846:1855  uint256 q */\n      0x00\n        /* \"HeiswapV0.sol\":1865:2040  while (newR != 0) {... */\n    tag_117:\n        /* \"HeiswapV0.sol\":1880:1881  0 */\n      0x00\n        /* \"HeiswapV0.sol\":1872:1876  newR */\n      dup3\n        /* \"HeiswapV0.sol\":1872:1881  newR != 0 */\n      eq\n        /* \"HeiswapV0.sol\":1865:2040  while (newR != 0) {... */\n      tag_118\n      jumpi\n        /* \"HeiswapV0.sol\":1905:1909  newR */\n      dup2\n        /* \"HeiswapV0.sol\":1901:1902  r */\n      dup4\n        /* \"HeiswapV0.sol\":1901:1909  r / newR */\n      dup2\n      tag_119\n      jumpi\n      invalid\n    tag_119:\n      div\n        /* \"HeiswapV0.sol\":1897:1909  q = r / newR */\n      swap1\n      pop\n        /* \"HeiswapV0.sol\":1937:1941  newT */\n      dup4\n        /* \"HeiswapV0.sol\":289:355  0xFFFFFFFFFFFFFFFFFFFFFFFFFFFFFFFFFFFFFFFFFFFFFFFFFFFFFFFEFFFFFC2F */\n      0xfffffffffffffffffffffffffffffffffffffffffffffffffffffffefffffc2f\n        /* \"HeiswapV0.sol\":1943:1981  addmod(t, (n - mulmod(q, newT, n)), n) */\n      dup1\n      tag_120\n      jumpi\n      invalid\n    tag_120:\n        /* \"HeiswapV0.sol\":289:355  0xFFFFFFFFFFFFFFFFFFFFFFFFFFFFFFFFFFFFFFFFFFFFFFFFFFFFFFFEFFFFFC2F */\n      0xfffffffffffffffffffffffffffffffffffffffffffffffffffffffefffffc2f\n        /* \"HeiswapV0.sol\":1958:1976  mulmod(q, newT, n) */\n      dup1\n      tag_121\n      jumpi\n      invalid\n    tag_121:\n        /* \"HeiswapV0.sol\":1968:1972  newT */\n      dup7\n        /* \"HeiswapV0.sol\":1965:1966  q */\n      dup5\n        /* \"HeiswapV0.sol\":1958:1976  mulmod(q, newT, n) */\n      mulmod\n        /* \"HeiswapV0.sol\":289:355  0xFFFFFFFFFFFFFFFFFFFFFFFFFFFFFFFFFFFFFFFFFFFFFFFFFFFFFFFEFFFFFC2F */\n      0xfffffffffffffffffffffffffffffffffffffffffffffffffffffffefffffc2f\n        /* \"HeiswapV0.sol\":1954:1976  n - mulmod(q, newT, n) */\n      sub\n        /* \"HeiswapV0.sol\":1950:1951  t */\n      dup8\n        /* \"HeiswapV0.sol\":1943:1981  addmod(t, (n - mulmod(q, newT, n)), n) */\n      addmod\n        /* \"HeiswapV0.sol\":1924:1982  (t, newT) = (newT, addmod(t, (n - mulmod(q, newT, n)), n)) */\n      dup1\n      swap6\n      pop\n      dup2\n      swap7\n      pop\n      pop\n      pop\n        /* \"HeiswapV0.sol\":2009:2013  newR */\n      dup2\n        /* \"HeiswapV0.sol\":2023:2027  newR */\n      dup3\n        /* \"HeiswapV0.sol\":2019:2020  q */\n      dup3\n        /* \"HeiswapV0.sol\":2019:2027  q * newR */\n      mul\n        /* \"HeiswapV0.sol\":2015:2016  r */\n      dup5\n        /* \"HeiswapV0.sol\":2015:2027  r - q * newR */\n      sub\n        /* \"HeiswapV0.sol\":1996:2029  (r, newR) = (newR, r - q * newR ) */\n      dup1\n      swap4\n      pop\n      dup2\n      swap5\n      pop\n      pop\n      pop\n        /* \"HeiswapV0.sol\":1865:2040  while (newR != 0) {... */\n      jump(tag_117)\n    tag_118:\n        /* \"HeiswapV0.sol\":2057:2058  t */\n      dup5\n        /* \"HeiswapV0.sol\":2050:2058  return t */\n      swap6\n      pop\n      pop\n      pop\n      pop\n      pop\n      pop\n        /* \"HeiswapV0.sol\":1657:2065  function _inverse(uint256 val) public pure... */\n      swap2\n      swap1\n      pop\n      jump\t// out\n        /* \"HeiswapV0.sol\":3514:4191  function _ecMul(uint256 d, uint256 x1, uint256 y1, uint256 z1) public pure... */\n    tag_69:\n        /* \"HeiswapV0.sol\":3605:3615  uint256 x3 */\n      0x00\n        /* \"HeiswapV0.sol\":3617:3627  uint256 y3 */\n      dup1\n        /* \"HeiswapV0.sol\":3629:3639  uint256 z3 */\n      0x00\n        /* \"HeiswapV0.sol\":3655:3672  uint256 remaining */\n      dup1\n        /* \"HeiswapV0.sol\":3675:3676  d */\n      dup8\n        /* \"HeiswapV0.sol\":3655:3676  uint256 remaining = d */\n      swap1\n      pop\n        /* \"HeiswapV0.sol\":3686:3696  uint256 px */\n      0x00\n        /* \"HeiswapV0.sol\":3699:3701  x1 */\n      dup8\n        /* \"HeiswapV0.sol\":3686:3701  uint256 px = x1 */\n      swap1\n      pop\n        /* \"HeiswapV0.sol\":3711:3721  uint256 py */\n      0x00\n        /* \"HeiswapV0.sol\":3724:3726  y1 */\n      dup8\n        /* \"HeiswapV0.sol\":3711:3726  uint256 py = y1 */\n      swap1\n      pop\n        /* \"HeiswapV0.sol\":3736:3746  uint256 pz */\n      0x00\n        /* \"HeiswapV0.sol\":3749:3751  z1 */\n      dup8\n        /* \"HeiswapV0.sol\":3736:3751  uint256 pz = z1 */\n      swap1\n      pop\n        /* \"HeiswapV0.sol\":3761:3772  uint256 acx */\n      0x00\n        /* \"HeiswapV0.sol\":3775:3776  0 */\n      dup1\n        /* \"HeiswapV0.sol\":3761:3776  uint256 acx = 0 */\n      swap1\n      pop\n        /* \"HeiswapV0.sol\":3786:3797  uint256 acy */\n      0x00\n        /* \"HeiswapV0.sol\":3800:3801  0 */\n      dup1\n        /* \"HeiswapV0.sol\":3786:3801  uint256 acy = 0 */\n      swap1\n      pop\n        /* \"HeiswapV0.sol\":3811:3822  uint256 acz */\n      0x00\n        /* \"HeiswapV0.sol\":3825:3826  1 */\n      0x01\n        /* \"HeiswapV0.sol\":3811:3826  uint256 acz = 1 */\n      swap1\n      pop\n        /* \"HeiswapV0.sol\":3846:3847  0 */\n      0x00\n        /* \"HeiswapV0.sol\":3841:3842  d */\n      dup15\n        /* \"HeiswapV0.sol\":3841:3847  d == 0 */\n      eq\n        /* \"HeiswapV0.sol\":3837:3890  if (d == 0) {... */\n      iszero\n      tag_123\n      jumpi\n        /* \"HeiswapV0.sol\":3871:3872  0 */\n      0x00\n        /* \"HeiswapV0.sol\":3874:3875  0 */\n      dup1\n        /* \"HeiswapV0.sol\":3877:3878  1 */\n      0x01\n        /* \"HeiswapV0.sol\":3863:3879  return (0, 0, 1) */\n      dup3\n      swap3\n      pop\n      dup2\n      swap2\n      pop\n      dup1\n      swap1\n      pop\n      swap10\n      pop\n      swap10\n      pop\n      swap10\n      pop\n      pop\n      pop\n      pop\n      pop\n      pop\n      pop\n      pop\n      jump(tag_122)\n        /* \"HeiswapV0.sol\":3837:3890  if (d == 0) {... */\n    tag_123:\n        /* \"HeiswapV0.sol\":3900:4144  while (remaining != 0) {... */\n    tag_124:\n        /* \"HeiswapV0.sol\":3920:3921  0 */\n      0x00\n        /* \"HeiswapV0.sol\":3907:3916  remaining */\n      dup8\n        /* \"HeiswapV0.sol\":3907:3921  remaining != 0 */\n      eq\n        /* \"HeiswapV0.sol\":3900:4144  while (remaining != 0) {... */\n      tag_125\n      jumpi\n        /* \"HeiswapV0.sol\":3960:3961  0 */\n      0x00\n        /* \"HeiswapV0.sol\":3954:3955  1 */\n      0x01\n        /* \"HeiswapV0.sol\":3942:3951  remaining */\n      dup9\n        /* \"HeiswapV0.sol\":3942:3955  remaining & 1 */\n      and\n        /* \"HeiswapV0.sol\":3941:3961  (remaining & 1) != 0 */\n      eq\n        /* \"HeiswapV0.sol\":3937:4045  if ((remaining & 1) != 0) {... */\n      tag_126\n      jumpi\n        /* \"HeiswapV0.sol\":3997:4030  _ecAdd(acx, acy, acz, px, py, pz) */\n      tag_127\n        /* \"HeiswapV0.sol\":4004:4007  acx */\n      dup4\n        /* \"HeiswapV0.sol\":4009:4012  acy */\n      dup4\n        /* \"HeiswapV0.sol\":4014:4017  acz */\n      dup4\n        /* \"HeiswapV0.sol\":4019:4021  px */\n      dup10\n        /* \"HeiswapV0.sol\":4023:4025  py */\n      dup10\n        /* \"HeiswapV0.sol\":4027:4029  pz */\n      dup10\n        /* \"HeiswapV0.sol\":3997:4003  _ecAdd */\n      tag_78\n        /* \"HeiswapV0.sol\":3997:4030  _ecAdd(acx, acy, acz, px, py, pz) */\n      jump\t// in\n    tag_127:\n        /* \"HeiswapV0.sol\":3981:4030  (acx,acy,acz) = _ecAdd(acx, acy, acz, px, py, pz) */\n      dup1\n      swap4\n      pop\n      dup2\n      swap5\n      pop\n      dup3\n      swap6\n      pop\n      pop\n      pop\n      pop\n        /* \"HeiswapV0.sol\":3937:4045  if ((remaining & 1) != 0) {... */\n    tag_126:\n        /* \"HeiswapV0.sol\":4082:4083  2 */\n      0x02\n        /* \"HeiswapV0.sol\":4070:4079  remaining */\n      dup8\n        /* \"HeiswapV0.sol\":4070:4083  remaining / 2 */\n      dup2\n      tag_128\n      jumpi\n      invalid\n    tag_128:\n      div\n        /* \"HeiswapV0.sol\":4058:4083  remaining = remaining / 2 */\n      swap7\n      pop\n        /* \"HeiswapV0.sol\":4112:4133  _ecDouble(px, py, pz) */\n      tag_129\n        /* \"HeiswapV0.sol\":4122:4124  px */\n      dup7\n        /* \"HeiswapV0.sol\":4126:4128  py */\n      dup7\n        /* \"HeiswapV0.sol\":4130:4132  pz */\n      dup7\n        /* \"HeiswapV0.sol\":4112:4121  _ecDouble */\n      tag_84\n        /* \"HeiswapV0.sol\":4112:4133  _ecDouble(px, py, pz) */\n      jump\t// in\n    tag_129:\n        /* \"HeiswapV0.sol\":4097:4133  (px, py, pz) = _ecDouble(px, py, pz) */\n      dup1\n      swap7\n      pop\n      dup2\n      swap8\n      pop\n      dup3\n      swap9\n      pop\n      pop\n      pop\n      pop\n        /* \"HeiswapV0.sol\":3900:4144  while (remaining != 0) {... */\n      jump(tag_124)\n    tag_125:\n        /* \"HeiswapV0.sol\":4170:4173  acx */\n      dup3\n        /* \"HeiswapV0.sol\":4175:4178  acy */\n      dup3\n        /* \"HeiswapV0.sol\":4180:4183  acz */\n      dup3\n        /* \"HeiswapV0.sol\":4154:4184  (x3, y3, z3) = (acx, acy, acz) */\n      dup1\n      swap11\n      pop\n      dup2\n      swap12\n      pop\n      dup3\n      swap13\n      pop\n      pop\n      pop\n      pop\n        /* \"HeiswapV0.sol\":3514:4191  function _ecMul(uint256 d, uint256 x1, uint256 y1, uint256 z1) public pure... */\n      pop\n      pop\n      pop\n      pop\n      pop\n      pop\n      pop\n    tag_122:\n      swap5\n      pop\n      swap5\n      pop\n      swap5\n      swap2\n      pop\n      pop\n      jump\t// out\n        /* \"HeiswapV0.sol\":5067:5459  function sbmul_add_mul(uint256 _s, uint256[2] memory B, uint256 c)... */\n    tag_72:\n        /* \"HeiswapV0.sol\":5162:5169  address */\n      0x00\n        /* \"HeiswapV0.sol\":5185:5194  uint256 s */\n      dup1\n        /* \"HeiswapV0.sol\":5197:5199  _s */\n      dup5\n        /* \"HeiswapV0.sol\":5185:5199  uint256 s = _s */\n      swap1\n      pop\n        /* \"HeiswapV0.sol\":5209:5218  uint256 Q */\n      0x00\n        /* \"HeiswapV0.sol\":5221:5287  0xFFFFFFFFFFFFFFFFFFFFFFFFFFFFFFFEBAAEDCE6AF48A03BBFD25E8CD0364141 */\n      0xfffffffffffffffffffffffffffffffebaaedce6af48a03bbfd25e8cd0364141\n        /* \"HeiswapV0.sol\":5209:5287  uint256 Q = 0xFFFFFFFFFFFFFFFFFFFFFFFFFFFFFFFEBAAEDCE6AF48A03BBFD25E8CD0364141 */\n      swap1\n      pop\n        /* \"HeiswapV0.sol\":5311:5312  Q */\n      dup1\n        /* \"HeiswapV0.sol\":5306:5307  s */\n      dup3\n        /* \"HeiswapV0.sol\":5302:5303  Q */\n      dup3\n        /* \"HeiswapV0.sol\":5302:5307  Q - s */\n      sub\n        /* \"HeiswapV0.sol\":5301:5312  (Q - s) % Q */\n      dup2\n      tag_131\n      jumpi\n      invalid\n    tag_131:\n      mod\n        /* \"HeiswapV0.sol\":5297:5312  s = (Q - s) % Q */\n      swap2\n      pop\n        /* \"HeiswapV0.sol\":5342:5343  Q */\n      dup1\n        /* \"HeiswapV0.sol\":5326:5344  mulmod(s, B[0], Q) */\n      dup1\n      tag_132\n      jumpi\n      invalid\n    tag_132:\n        /* \"HeiswapV0.sol\":5336:5337  B */\n      dup6\n        /* \"HeiswapV0.sol\":5338:5339  0 */\n      0x00\n        /* \"HeiswapV0.sol\":5336:5340  B[0] */\n      0x02\n      dup2\n      lt\n      tag_133\n      jumpi\n      invalid\n    tag_133:\n      0x20\n      mul\n      add\n      mload\n        /* \"HeiswapV0.sol\":5333:5334  s */\n      dup4\n        /* \"HeiswapV0.sol\":5326:5344  mulmod(s, B[0], Q) */\n      mulmod\n        /* \"HeiswapV0.sol\":5322:5344  s = mulmod(s, B[0], Q) */\n      swap2\n      pop\n        /* \"HeiswapV0.sol\":5362:5452  ecrecover(bytes32(s), B[1] % 2 != 0 ? 28 : 27, bytes32(B[0]), bytes32(mulmod(c, B[0], Q))) */\n      0x01\n        /* \"HeiswapV0.sol\":5380:5381  s */\n      dup3\n        /* \"HeiswapV0.sol\":5372:5382  bytes32(s) */\n      0x00\n      shl\n        /* \"HeiswapV0.sol\":5396:5397  0 */\n      0x00\n        /* \"HeiswapV0.sol\":5391:5392  2 */\n      0x02\n        /* \"HeiswapV0.sol\":5384:5385  B */\n      dup9\n        /* \"HeiswapV0.sol\":5386:5387  1 */\n      0x01\n        /* \"HeiswapV0.sol\":5384:5388  B[1] */\n      0x02\n      dup2\n      lt\n      tag_134\n      jumpi\n      invalid\n    tag_134:\n      0x20\n      mul\n      add\n      mload\n        /* \"HeiswapV0.sol\":5384:5392  B[1] % 2 */\n      dup2\n      tag_135\n      jumpi\n      invalid\n    tag_135:\n      mod\n        /* \"HeiswapV0.sol\":5384:5397  B[1] % 2 != 0 */\n      eq\n      iszero\n        /* \"HeiswapV0.sol\":5384:5407  B[1] % 2 != 0 ? 28 : 27 */\n      tag_136\n      jumpi\n        /* \"HeiswapV0.sol\":5405:5407  27 */\n      0x1b\n        /* \"HeiswapV0.sol\":5384:5407  B[1] % 2 != 0 ? 28 : 27 */\n      jump(tag_137)\n    tag_136:\n        /* \"HeiswapV0.sol\":5400:5402  28 */\n      0x1c\n        /* \"HeiswapV0.sol\":5384:5407  B[1] % 2 != 0 ? 28 : 27 */\n    tag_137:\n        /* \"HeiswapV0.sol\":5417:5418  B */\n      dup8\n        /* \"HeiswapV0.sol\":5419:5420  0 */\n      0x00\n        /* \"HeiswapV0.sol\":5417:5421  B[0] */\n      0x02\n      dup2\n      lt\n      tag_138\n      jumpi\n      invalid\n    tag_138:\n      0x20\n      mul\n      add\n      mload\n        /* \"HeiswapV0.sol\":5409:5422  bytes32(B[0]) */\n      0x00\n      shl\n        /* \"HeiswapV0.sol\":5448:5449  Q */\n      dup5\n        /* \"HeiswapV0.sol\":5432:5450  mulmod(c, B[0], Q) */\n      dup1\n      tag_139\n      jumpi\n      invalid\n    tag_139:\n        /* \"HeiswapV0.sol\":5442:5443  B */\n      dup10\n        /* \"HeiswapV0.sol\":5444:5445  0 */\n      0x00\n        /* \"HeiswapV0.sol\":5442:5446  B[0] */\n      0x02\n      dup2\n      lt\n      tag_140\n      jumpi\n      invalid\n    tag_140:\n      0x20\n      mul\n      add\n      mload\n        /* \"HeiswapV0.sol\":5439:5440  c */\n      dup10\n        /* \"HeiswapV0.sol\":5432:5450  mulmod(c, B[0], Q) */\n      mulmod\n        /* \"HeiswapV0.sol\":5424:5451  bytes32(mulmod(c, B[0], Q)) */\n      0x00\n      shl\n        /* \"HeiswapV0.sol\":5362:5452  ecrecover(bytes32(s), B[1] % 2 != 0 ? 28 : 27, bytes32(B[0]), bytes32(mulmod(c, B[0], Q))) */\n      mload(0x40)\n      0x00\n      dup2\n      mstore\n      0x20\n      add\n      0x40\n      mstore\n      mload(0x40)\n      dup1\n      dup6\n      dup2\n      mstore\n      0x20\n      add\n      dup5\n      0xff\n      and\n      0xff\n      and\n      dup2\n      mstore\n      0x20\n      add\n      dup4\n      dup2\n      mstore\n      0x20\n      add\n      dup3\n      dup2\n      mstore\n      0x20\n      add\n      swap5\n      pop\n      pop\n      pop\n      pop\n      pop\n      0x20\n      mload(0x40)\n      0x20\n      dup2\n      sub\n      swap1\n      dup1\n      dup5\n      sub\n      swap1\n      dup6\n      gas\n      staticcall\n      iszero\n        /* \"--CODEGEN--\":8:17   */\n      dup1\n        /* \"--CODEGEN--\":5:7   */\n      iszero\n      tag_141\n      jumpi\n        /* \"--CODEGEN--\":45:61   */\n      returndatasize\n        /* \"--CODEGEN--\":42:43   */\n      0x00\n        /* \"--CODEGEN--\":39:40   */\n      dup1\n        /* \"--CODEGEN--\":24:62   */\n      returndatacopy\n        /* \"--CODEGEN--\":77:93   */\n      returndatasize\n        /* \"--CODEGEN--\":74:75   */\n      0x00\n        /* \"--CODEGEN--\":67:94   */\n      revert\n        /* \"--CODEGEN--\":5:7   */\n    tag_141:\n        /* \"HeiswapV0.sol\":5362:5452  ecrecover(bytes32(s), B[1] % 2 != 0 ? 28 : 27, bytes32(B[0]), bytes32(mulmod(c, B[0], Q))) */\n      pop\n      pop\n      pop\n      mload(sub(mload(0x40), 0x20))\n        /* \"HeiswapV0.sol\":5355:5452  return ecrecover(bytes32(s), B[1] % 2 != 0 ? 28 : 27, bytes32(B[0]), bytes32(mulmod(c, B[0], Q))) */\n      swap3\n      pop\n      pop\n      pop\n        /* \"HeiswapV0.sol\":5067:5459  function sbmul_add_mul(uint256 _s, uint256[2] memory B, uint256 c)... */\n      swap4\n      swap3\n      pop\n      pop\n      pop\n      jump\t// out\n        /* \"HeiswapV0.sol\":4197:4514  function ecadd(... */\n    tag_75:\n        /* \"HeiswapV0.sol\":4321:4331  uint256 x3 */\n      0x00\n        /* \"HeiswapV0.sol\":4333:4343  uint256 y3 */\n      dup1\n        /* \"HeiswapV0.sol\":4359:4368  uint256 z */\n      0x00\n        /* \"HeiswapV0.sol\":4392:4420  _ecAdd(x1, y1, 1, x2, y2, 1) */\n      tag_143\n        /* \"HeiswapV0.sol\":4399:4401  x1 */\n      dup8\n        /* \"HeiswapV0.sol\":4403:4405  y1 */\n      dup8\n        /* \"HeiswapV0.sol\":4407:4408  1 */\n      0x01\n        /* \"HeiswapV0.sol\":4410:4412  x2 */\n      dup9\n        /* \"HeiswapV0.sol\":4414:4416  y2 */\n      dup9\n        /* \"HeiswapV0.sol\":4418:4419  1 */\n      0x01\n        /* \"HeiswapV0.sol\":4392:4398  _ecAdd */\n      tag_78\n        /* \"HeiswapV0.sol\":4392:4420  _ecAdd(x1, y1, 1, x2, y2, 1) */\n      jump\t// in\n    tag_143:\n        /* \"HeiswapV0.sol\":4378:4420  (x3, y3, z) = _ecAdd(x1, y1, 1, x2, y2, 1) */\n      dup1\n      swap4\n      pop\n      dup2\n      swap5\n      pop\n      dup3\n      swap6\n      pop\n      pop\n      pop\n      pop\n        /* \"HeiswapV0.sol\":4434:4445  _inverse(z) */\n      tag_144\n        /* \"HeiswapV0.sol\":4443:4444  z */\n      dup2\n        /* \"HeiswapV0.sol\":4434:4442  _inverse */\n      tag_66\n        /* \"HeiswapV0.sol\":4434:4445  _inverse(z) */\n      jump\t// in\n    tag_144:\n        /* \"HeiswapV0.sol\":4430:4445  z = _inverse(z) */\n      swap1\n      pop\n        /* \"HeiswapV0.sol\":289:355  0xFFFFFFFFFFFFFFFFFFFFFFFFFFFFFFFFFFFFFFFFFFFFFFFFFFFFFFFEFFFFFC2F */\n      0xfffffffffffffffffffffffffffffffffffffffffffffffffffffffefffffc2f\n        /* \"HeiswapV0.sol\":4460:4476  mulmod(x3, z, n) */\n      dup1\n      tag_145\n      jumpi\n      invalid\n    tag_145:\n        /* \"HeiswapV0.sol\":4471:4472  z */\n      dup2\n        /* \"HeiswapV0.sol\":4467:4469  x3 */\n      dup5\n        /* \"HeiswapV0.sol\":4460:4476  mulmod(x3, z, n) */\n      mulmod\n        /* \"HeiswapV0.sol\":4455:4476  x3 = mulmod(x3, z, n) */\n      swap3\n      pop\n        /* \"HeiswapV0.sol\":289:355  0xFFFFFFFFFFFFFFFFFFFFFFFFFFFFFFFFFFFFFFFFFFFFFFFFFFFFFFFEFFFFFC2F */\n      0xfffffffffffffffffffffffffffffffffffffffffffffffffffffffefffffc2f\n        /* \"HeiswapV0.sol\":4491:4507  mulmod(y3, z, n) */\n      dup1\n      tag_146\n      jumpi\n      invalid\n    tag_146:\n        /* \"HeiswapV0.sol\":4502:4503  z */\n      dup2\n        /* \"HeiswapV0.sol\":4498:4500  y3 */\n      dup4\n        /* \"HeiswapV0.sol\":4491:4507  mulmod(y3, z, n) */\n      mulmod\n        /* \"HeiswapV0.sol\":4486:4507  y3 = mulmod(y3, z, n) */\n      swap2\n      pop\n        /* \"HeiswapV0.sol\":4197:4514  function ecadd(... */\n      pop\n      swap5\n      pop\n      swap5\n      swap3\n      pop\n      pop\n      pop\n      jump\t// out\n        /* \"HeiswapV0.sol\":2071:3317  function _ecAdd(... */\n    tag_78:\n        /* \"HeiswapV0.sol\":2222:2232  uint256 x3 */\n      0x00\n        /* \"HeiswapV0.sol\":2234:2244  uint256 y3 */\n      dup1\n        /* \"HeiswapV0.sol\":2246:2256  uint256 z3 */\n      0x00\n        /* \"HeiswapV0.sol\":2272:2282  uint256 lx */\n      dup1\n        /* \"HeiswapV0.sol\":2292:2302  uint256 lz */\n      0x00\n        /* \"HeiswapV0.sol\":2312:2322  uint256 da */\n      dup1\n        /* \"HeiswapV0.sol\":2332:2342  uint256 db */\n      0x00\n        /* \"HeiswapV0.sol\":2363:2364  0 */\n      dup1\n        /* \"HeiswapV0.sol\":2357:2359  x1 */\n      dup14\n        /* \"HeiswapV0.sol\":2357:2364  x1 == 0 */\n      eq\n        /* \"HeiswapV0.sol\":2357:2375  x1 == 0 && y1 == 0 */\n      dup1\n      iszero\n      tag_148\n      jumpi\n      pop\n        /* \"HeiswapV0.sol\":2374:2375  0 */\n      0x00\n        /* \"HeiswapV0.sol\":2368:2370  y1 */\n      dup13\n        /* \"HeiswapV0.sol\":2368:2375  y1 == 0 */\n      eq\n        /* \"HeiswapV0.sol\":2357:2375  x1 == 0 && y1 == 0 */\n    tag_148:\n        /* \"HeiswapV0.sol\":2353:2421  if (x1 == 0 && y1 == 0) {... */\n      iszero\n      tag_149\n      jumpi\n        /* \"HeiswapV0.sol\":2399:2401  x2 */\n      dup10\n        /* \"HeiswapV0.sol\":2403:2405  y2 */\n      dup10\n        /* \"HeiswapV0.sol\":2407:2409  z2 */\n      dup10\n        /* \"HeiswapV0.sol\":2391:2410  return (x2, y2, z2) */\n      swap7\n      pop\n      swap7\n      pop\n      swap7\n      pop\n      pop\n      pop\n      pop\n      pop\n      jump(tag_147)\n        /* \"HeiswapV0.sol\":2353:2421  if (x1 == 0 && y1 == 0) {... */\n    tag_149:\n        /* \"HeiswapV0.sol\":2441:2442  0 */\n      0x00\n        /* \"HeiswapV0.sol\":2435:2437  x2 */\n      dup11\n        /* \"HeiswapV0.sol\":2435:2442  x2 == 0 */\n      eq\n        /* \"HeiswapV0.sol\":2435:2453  x2 == 0 && y2 == 0 */\n      dup1\n      iszero\n      tag_150\n      jumpi\n      pop\n        /* \"HeiswapV0.sol\":2452:2453  0 */\n      0x00\n        /* \"HeiswapV0.sol\":2446:2448  y2 */\n      dup10\n        /* \"HeiswapV0.sol\":2446:2453  y2 == 0 */\n      eq\n        /* \"HeiswapV0.sol\":2435:2453  x2 == 0 && y2 == 0 */\n    tag_150:\n        /* \"HeiswapV0.sol\":2431:2499  if (x2 == 0 && y2 == 0) {... */\n      iszero\n      tag_151\n      jumpi\n        /* \"HeiswapV0.sol\":2477:2479  x1 */\n      dup13\n        /* \"HeiswapV0.sol\":2481:2483  y1 */\n      dup13\n        /* \"HeiswapV0.sol\":2485:2487  z1 */\n      dup13\n        /* \"HeiswapV0.sol\":2469:2488  return (x1, y1, z1) */\n      swap7\n      pop\n      swap7\n      pop\n      swap7\n      pop\n      pop\n      pop\n      pop\n      pop\n      jump(tag_147)\n        /* \"HeiswapV0.sol\":2431:2499  if (x2 == 0 && y2 == 0) {... */\n    tag_151:\n        /* \"HeiswapV0.sol\":2519:2521  x2 */\n      dup10\n        /* \"HeiswapV0.sol\":2513:2515  x1 */\n      dup14\n        /* \"HeiswapV0.sol\":2513:2521  x1 == x2 */\n      eq\n        /* \"HeiswapV0.sol\":2513:2533  x1 == x2 && y1 == y2 */\n      dup1\n      iszero\n      tag_152\n      jumpi\n      pop\n        /* \"HeiswapV0.sol\":2531:2533  y2 */\n      dup9\n        /* \"HeiswapV0.sol\":2525:2527  y1 */\n      dup13\n        /* \"HeiswapV0.sol\":2525:2533  y1 == y2 */\n      eq\n        /* \"HeiswapV0.sol\":2513:2533  x1 == x2 && y1 == y2 */\n    tag_152:\n        /* \"HeiswapV0.sol\":2509:2833  if (x1 == x2 && y1 == y2) {... */\n      iszero\n      tag_153\n      jumpi\n        /* \"HeiswapV0.sol\":2560:2581  _jMul(x1, z1, x1, z1) */\n      tag_154\n        /* \"HeiswapV0.sol\":2566:2568  x1 */\n      dup14\n        /* \"HeiswapV0.sol\":2570:2572  z1 */\n      dup13\n        /* \"HeiswapV0.sol\":2574:2576  x1 */\n      dup16\n        /* \"HeiswapV0.sol\":2578:2580  z1 */\n      dup15\n        /* \"HeiswapV0.sol\":2560:2565  _jMul */\n      tag_51\n        /* \"HeiswapV0.sol\":2560:2581  _jMul(x1, z1, x1, z1) */\n      jump\t// in\n    tag_154:\n        /* \"HeiswapV0.sol\":2549:2581  (lx, lz) = _jMul(x1, z1, x1, z1) */\n      dup1\n      swap5\n      pop\n      dup2\n      swap6\n      pop\n      pop\n      pop\n        /* \"HeiswapV0.sol\":2606:2625  _jMul(lx, lz, 3, 1) */\n      tag_155\n        /* \"HeiswapV0.sol\":2612:2614  lx */\n      dup5\n        /* \"HeiswapV0.sol\":2616:2618  lz */\n      dup5\n        /* \"HeiswapV0.sol\":2620:2621  3 */\n      0x03\n        /* \"HeiswapV0.sol\":2623:2624  1 */\n      0x01\n        /* \"HeiswapV0.sol\":2606:2611  _jMul */\n      tag_51\n        /* \"HeiswapV0.sol\":2606:2625  _jMul(lx, lz, 3, 1) */\n      jump\t// in\n    tag_155:\n        /* \"HeiswapV0.sol\":2595:2625  (lx, lz) = _jMul(lx, lz, 3, 1) */\n      dup1\n      swap5\n      pop\n      dup2\n      swap6\n      pop\n      pop\n      pop\n        /* \"HeiswapV0.sol\":2650:2669  _jAdd(lx, lz, a, 1) */\n      tag_156\n        /* \"HeiswapV0.sol\":2656:2658  lx */\n      dup5\n        /* \"HeiswapV0.sol\":2660:2662  lz */\n      dup5\n        /* \"HeiswapV0.sol\":389:390  0 */\n      0x00\n        /* \"HeiswapV0.sol\":2667:2668  1 */\n      0x01\n        /* \"HeiswapV0.sol\":2650:2655  _jAdd */\n      tag_29\n        /* \"HeiswapV0.sol\":2650:2669  _jAdd(lx, lz, a, 1) */\n      jump\t// in\n    tag_156:\n        /* \"HeiswapV0.sol\":2639:2669  (lx, lz) = _jAdd(lx, lz, a, 1) */\n      dup1\n      swap5\n      pop\n      dup2\n      swap6\n      pop\n      pop\n      pop\n        /* \"HeiswapV0.sol\":2694:2713  _jMul(y1, z1, 2, 1) */\n      tag_157\n        /* \"HeiswapV0.sol\":2700:2702  y1 */\n      dup13\n        /* \"HeiswapV0.sol\":2704:2706  z1 */\n      dup13\n        /* \"HeiswapV0.sol\":2708:2709  2 */\n      0x02\n        /* \"HeiswapV0.sol\":2711:2712  1 */\n      0x01\n        /* \"HeiswapV0.sol\":2694:2699  _jMul */\n      tag_51\n        /* \"HeiswapV0.sol\":2694:2713  _jMul(y1, z1, 2, 1) */\n      jump\t// in\n    tag_157:\n        /* \"HeiswapV0.sol\":2684:2713  (da,db) = _jMul(y1, z1, 2, 1) */\n      dup1\n      swap3\n      pop\n      dup2\n      swap4\n      pop\n      pop\n      pop\n        /* \"HeiswapV0.sol\":2509:2833  if (x1 == x2 && y1 == y2) {... */\n      jump(tag_158)\n    tag_153:\n        /* \"HeiswapV0.sol\":2755:2776  _jSub(y2, z2, y1, z1) */\n      tag_159\n        /* \"HeiswapV0.sol\":2761:2763  y2 */\n      dup10\n        /* \"HeiswapV0.sol\":2765:2767  z2 */\n      dup10\n        /* \"HeiswapV0.sol\":2769:2771  y1 */\n      dup15\n        /* \"HeiswapV0.sol\":2773:2775  z1 */\n      dup15\n        /* \"HeiswapV0.sol\":2755:2760  _jSub */\n      tag_39\n        /* \"HeiswapV0.sol\":2755:2776  _jSub(y2, z2, y1, z1) */\n      jump\t// in\n    tag_159:\n        /* \"HeiswapV0.sol\":2744:2776  (lx, lz) = _jSub(y2, z2, y1, z1) */\n      dup1\n      swap5\n      pop\n      dup2\n      swap6\n      pop\n      pop\n      pop\n        /* \"HeiswapV0.sol\":2801:2822  _jSub(x2, z2, x1, z1) */\n      tag_160\n        /* \"HeiswapV0.sol\":2807:2809  x2 */\n      dup11\n        /* \"HeiswapV0.sol\":2811:2813  z2 */\n      dup10\n        /* \"HeiswapV0.sol\":2815:2817  x1 */\n      dup16\n        /* \"HeiswapV0.sol\":2819:2821  z1 */\n      dup15\n        /* \"HeiswapV0.sol\":2801:2806  _jSub */\n      tag_39\n        /* \"HeiswapV0.sol\":2801:2822  _jSub(x2, z2, x1, z1) */\n      jump\t// in\n    tag_160:\n        /* \"HeiswapV0.sol\":2790:2822  (da, db) = _jSub(x2, z2, x1, z1) */\n      dup1\n      swap3\n      pop\n      dup2\n      swap4\n      pop\n      pop\n      pop\n        /* \"HeiswapV0.sol\":2509:2833  if (x1 == x2 && y1 == y2) {... */\n    tag_158:\n        /* \"HeiswapV0.sol\":2854:2875  _jDiv(lx, lz, da, db) */\n      tag_161\n        /* \"HeiswapV0.sol\":2860:2862  lx */\n      dup5\n        /* \"HeiswapV0.sol\":2864:2866  lz */\n      dup5\n        /* \"HeiswapV0.sol\":2868:2870  da */\n      dup5\n        /* \"HeiswapV0.sol\":2872:2874  db */\n      dup5\n        /* \"HeiswapV0.sol\":2854:2859  _jDiv */\n      tag_54\n        /* \"HeiswapV0.sol\":2854:2875  _jDiv(lx, lz, da, db) */\n      jump\t// in\n    tag_161:\n        /* \"HeiswapV0.sol\":2843:2875  (lx, lz) = _jDiv(lx, lz, da, db) */\n      dup1\n      swap5\n      pop\n      dup2\n      swap6\n      pop\n      pop\n      pop\n        /* \"HeiswapV0.sol\":2897:2918  _jMul(lx, lz, lx, lz) */\n      tag_162\n        /* \"HeiswapV0.sol\":2903:2905  lx */\n      dup5\n        /* \"HeiswapV0.sol\":2907:2909  lz */\n      dup5\n        /* \"HeiswapV0.sol\":2911:2913  lx */\n      dup7\n        /* \"HeiswapV0.sol\":2915:2917  lz */\n      dup7\n        /* \"HeiswapV0.sol\":2897:2902  _jMul */\n      tag_51\n        /* \"HeiswapV0.sol\":2897:2918  _jMul(lx, lz, lx, lz) */\n      jump\t// in\n    tag_162:\n        /* \"HeiswapV0.sol\":2886:2918  (x3, da) = _jMul(lx, lz, lx, lz) */\n      dup1\n      swap4\n      pop\n      dup2\n      swap9\n      pop\n      pop\n      pop\n        /* \"HeiswapV0.sol\":2939:2960  _jSub(x3, da, x1, z1) */\n      tag_163\n        /* \"HeiswapV0.sol\":2945:2947  x3 */\n      dup8\n        /* \"HeiswapV0.sol\":2949:2951  da */\n      dup4\n        /* \"HeiswapV0.sol\":2953:2955  x1 */\n      dup16\n        /* \"HeiswapV0.sol\":2957:2959  z1 */\n      dup15\n        /* \"HeiswapV0.sol\":2939:2944  _jSub */\n      tag_39\n        /* \"HeiswapV0.sol\":2939:2960  _jSub(x3, da, x1, z1) */\n      jump\t// in\n    tag_163:\n        /* \"HeiswapV0.sol\":2928:2960  (x3, da) = _jSub(x3, da, x1, z1) */\n      dup1\n      swap4\n      pop\n      dup2\n      swap9\n      pop\n      pop\n      pop\n        /* \"HeiswapV0.sol\":2981:3002  _jSub(x3, da, x2, z2) */\n      tag_164\n        /* \"HeiswapV0.sol\":2987:2989  x3 */\n      dup8\n        /* \"HeiswapV0.sol\":2991:2993  da */\n      dup4\n        /* \"HeiswapV0.sol\":2995:2997  x2 */\n      dup13\n        /* \"HeiswapV0.sol\":2999:3001  z2 */\n      dup12\n        /* \"HeiswapV0.sol\":2981:2986  _jSub */\n      tag_39\n        /* \"HeiswapV0.sol\":2981:3002  _jSub(x3, da, x2, z2) */\n      jump\t// in\n    tag_164:\n        /* \"HeiswapV0.sol\":2970:3002  (x3, da) = _jSub(x3, da, x2, z2) */\n      dup1\n      swap4\n      pop\n      dup2\n      swap9\n      pop\n      pop\n      pop\n        /* \"HeiswapV0.sol\":3024:3045  _jSub(x1, z1, x3, da) */\n      tag_165\n        /* \"HeiswapV0.sol\":3030:3032  x1 */\n      dup14\n        /* \"HeiswapV0.sol\":3034:3036  z1 */\n      dup13\n        /* \"HeiswapV0.sol\":3038:3040  x3 */\n      dup10\n        /* \"HeiswapV0.sol\":3042:3044  da */\n      dup6\n        /* \"HeiswapV0.sol\":3024:3029  _jSub */\n      tag_39\n        /* \"HeiswapV0.sol\":3024:3045  _jSub(x1, z1, x3, da) */\n      jump\t// in\n    tag_165:\n        /* \"HeiswapV0.sol\":3013:3045  (y3, db) = _jSub(x1, z1, x3, da) */\n      dup1\n      swap3\n      pop\n      dup2\n      swap8\n      pop\n      pop\n      pop\n        /* \"HeiswapV0.sol\":3066:3087  _jMul(y3, db, lx, lz) */\n      tag_166\n        /* \"HeiswapV0.sol\":3072:3074  y3 */\n      dup7\n        /* \"HeiswapV0.sol\":3076:3078  db */\n      dup3\n        /* \"HeiswapV0.sol\":3080:3082  lx */\n      dup7\n        /* \"HeiswapV0.sol\":3084:3086  lz */\n      dup7\n        /* \"HeiswapV0.sol\":3066:3071  _jMul */\n      tag_51\n        /* \"HeiswapV0.sol\":3066:3087  _jMul(y3, db, lx, lz) */\n      jump\t// in\n    tag_166:\n        /* \"HeiswapV0.sol\":3055:3087  (y3, db) = _jMul(y3, db, lx, lz) */\n      dup1\n      swap3\n      pop\n      dup2\n      swap8\n      pop\n      pop\n      pop\n        /* \"HeiswapV0.sol\":3108:3129  _jSub(y3, db, y1, z1) */\n      tag_167\n        /* \"HeiswapV0.sol\":3114:3116  y3 */\n      dup7\n        /* \"HeiswapV0.sol\":3118:3120  db */\n      dup3\n        /* \"HeiswapV0.sol\":3122:3124  y1 */\n      dup15\n        /* \"HeiswapV0.sol\":3126:3128  z1 */\n      dup15\n        /* \"HeiswapV0.sol\":3108:3113  _jSub */\n      tag_39\n        /* \"HeiswapV0.sol\":3108:3129  _jSub(y3, db, y1, z1) */\n      jump\t// in\n    tag_167:\n        /* \"HeiswapV0.sol\":3097:3129  (y3, db) = _jSub(y3, db, y1, z1) */\n      dup1\n      swap3\n      pop\n      dup2\n      swap8\n      pop\n      pop\n      pop\n        /* \"HeiswapV0.sol\":3150:3152  db */\n      dup1\n        /* \"HeiswapV0.sol\":3144:3146  da */\n      dup3\n        /* \"HeiswapV0.sol\":3144:3152  da != db */\n      eq\n        /* \"HeiswapV0.sol\":3140:3311  if (da != db) {... */\n      tag_168\n      jumpi\n        /* \"HeiswapV0.sol\":289:355  0xFFFFFFFFFFFFFFFFFFFFFFFFFFFFFFFFFFFFFFFFFFFFFFFFFFFFFFFEFFFFFC2F */\n      0xfffffffffffffffffffffffffffffffffffffffffffffffffffffffefffffc2f\n        /* \"HeiswapV0.sol\":3173:3190  mulmod(x3, db, n) */\n      dup1\n      tag_169\n      jumpi\n      invalid\n    tag_169:\n        /* \"HeiswapV0.sol\":3184:3186  db */\n      dup2\n        /* \"HeiswapV0.sol\":3180:3182  x3 */\n      dup9\n        /* \"HeiswapV0.sol\":3173:3190  mulmod(x3, db, n) */\n      mulmod\n        /* \"HeiswapV0.sol\":3168:3190  x3 = mulmod(x3, db, n) */\n      swap7\n      pop\n        /* \"HeiswapV0.sol\":289:355  0xFFFFFFFFFFFFFFFFFFFFFFFFFFFFFFFFFFFFFFFFFFFFFFFFFFFFFFFEFFFFFC2F */\n      0xfffffffffffffffffffffffffffffffffffffffffffffffffffffffefffffc2f\n        /* \"HeiswapV0.sol\":3209:3226  mulmod(y3, da, n) */\n      dup1\n      tag_170\n      jumpi\n      invalid\n    tag_170:\n        /* \"HeiswapV0.sol\":3220:3222  da */\n      dup3\n        /* \"HeiswapV0.sol\":3216:3218  y3 */\n      dup8\n        /* \"HeiswapV0.sol\":3209:3226  mulmod(y3, da, n) */\n      mulmod\n        /* \"HeiswapV0.sol\":3204:3226  y3 = mulmod(y3, da, n) */\n      swap6\n      pop\n        /* \"HeiswapV0.sol\":289:355  0xFFFFFFFFFFFFFFFFFFFFFFFFFFFFFFFFFFFFFFFFFFFFFFFFFFFFFFFEFFFFFC2F */\n      0xfffffffffffffffffffffffffffffffffffffffffffffffffffffffefffffc2f\n        /* \"HeiswapV0.sol\":3245:3262  mulmod(da, db, n) */\n      dup1\n      tag_171\n      jumpi\n      invalid\n    tag_171:\n        /* \"HeiswapV0.sol\":3256:3258  db */\n      dup2\n        /* \"HeiswapV0.sol\":3252:3254  da */\n      dup4\n        /* \"HeiswapV0.sol\":3245:3262  mulmod(da, db, n) */\n      mulmod\n        /* \"HeiswapV0.sol\":3240:3262  z3 = mulmod(da, db, n) */\n      swap5\n      pop\n        /* \"HeiswapV0.sol\":3140:3311  if (da != db) {... */\n      jump(tag_172)\n    tag_168:\n        /* \"HeiswapV0.sol\":3298:3300  da */\n      dup2\n        /* \"HeiswapV0.sol\":3293:3300  z3 = da */\n      swap5\n      pop\n        /* \"HeiswapV0.sol\":3140:3311  if (da != db) {... */\n    tag_172:\n        /* \"HeiswapV0.sol\":2071:3317  function _ecAdd(... */\n      pop\n      pop\n      pop\n      pop\n    tag_147:\n      swap7\n      pop\n      swap7\n      pop\n      swap7\n      swap4\n      pop\n      pop\n      pop\n      pop\n      jump\t// out\n        /* \"HeiswapV0.sol\":6185:6472  function deriveKey(uint256 privKey, uint256 pubX, uint256 pubY) public pure... */\n    tag_81:\n        /* \"HeiswapV0.sol\":6277:6287  uint256 qx */\n      0x00\n        /* \"HeiswapV0.sol\":6289:6299  uint256 qy */\n      dup1\n        /* \"HeiswapV0.sol\":6315:6324  uint256 z */\n      0x00\n        /* \"HeiswapV0.sol\":6348:6378  _ecMul(privKey, pubX, pubY, 1) */\n      tag_174\n        /* \"HeiswapV0.sol\":6355:6362  privKey */\n      dup7\n        /* \"HeiswapV0.sol\":6364:6368  pubX */\n      dup7\n        /* \"HeiswapV0.sol\":6370:6374  pubY */\n      dup7\n        /* \"HeiswapV0.sol\":6376:6377  1 */\n      0x01\n        /* \"HeiswapV0.sol\":6348:6354  _ecMul */\n      tag_69\n        /* \"HeiswapV0.sol\":6348:6378  _ecMul(privKey, pubX, pubY, 1) */\n      jump\t// in\n    tag_174:\n        /* \"HeiswapV0.sol\":6334:6378  (qx, qy, z) = _ecMul(privKey, pubX, pubY, 1) */\n      dup1\n      swap4\n      pop\n      dup2\n      swap5\n      pop\n      dup3\n      swap6\n      pop\n      pop\n      pop\n      pop\n        /* \"HeiswapV0.sol\":6392:6403  _inverse(z) */\n      tag_175\n        /* \"HeiswapV0.sol\":6401:6402  z */\n      dup2\n        /* \"HeiswapV0.sol\":6392:6400  _inverse */\n      tag_66\n        /* \"HeiswapV0.sol\":6392:6403  _inverse(z) */\n      jump\t// in\n    tag_175:\n        /* \"HeiswapV0.sol\":6388:6403  z = _inverse(z) */\n      swap1\n      pop\n        /* \"HeiswapV0.sol\":289:355  0xFFFFFFFFFFFFFFFFFFFFFFFFFFFFFFFFFFFFFFFFFFFFFFFFFFFFFFFEFFFFFC2F */\n      0xfffffffffffffffffffffffffffffffffffffffffffffffffffffffefffffc2f\n        /* \"HeiswapV0.sol\":6418:6434  mulmod(qx, z, n) */\n      dup1\n      tag_176\n      jumpi\n      invalid\n    tag_176:\n        /* \"HeiswapV0.sol\":6429:6430  z */\n      dup2\n        /* \"HeiswapV0.sol\":6425:6427  qx */\n      dup5\n        /* \"HeiswapV0.sol\":6418:6434  mulmod(qx, z, n) */\n      mulmod\n        /* \"HeiswapV0.sol\":6413:6434  qx = mulmod(qx, z, n) */\n      swap3\n      pop\n        /* \"HeiswapV0.sol\":289:355  0xFFFFFFFFFFFFFFFFFFFFFFFFFFFFFFFFFFFFFFFFFFFFFFFFFFFFFFFEFFFFFC2F */\n      0xfffffffffffffffffffffffffffffffffffffffffffffffffffffffefffffc2f\n        /* \"HeiswapV0.sol\":6449:6465  mulmod(qy, z, n) */\n      dup1\n      tag_177\n      jumpi\n      invalid\n    tag_177:\n        /* \"HeiswapV0.sol\":6460:6461  z */\n      dup2\n        /* \"HeiswapV0.sol\":6456:6458  qy */\n      dup4\n        /* \"HeiswapV0.sol\":6449:6465  mulmod(qy, z, n) */\n      mulmod\n        /* \"HeiswapV0.sol\":6444:6465  qy = mulmod(qy, z, n) */\n      swap2\n      pop\n        /* \"HeiswapV0.sol\":6185:6472  function deriveKey(uint256 privKey, uint256 pubX, uint256 pubY) public pure... */\n      pop\n      swap4\n      pop\n      swap4\n      swap2\n      pop\n      pop\n      jump\t// out\n        /* \"HeiswapV0.sol\":3323:3508  function _ecDouble(uint256 x1, uint256 y1, uint256 z1) public pure... */\n    tag_84:\n        /* \"HeiswapV0.sol\":3406:3416  uint256 x3 */\n      0x00\n        /* \"HeiswapV0.sol\":3418:3428  uint256 y3 */\n      dup1\n        /* \"HeiswapV0.sol\":3430:3440  uint256 z3 */\n      0x00\n        /* \"HeiswapV0.sol\":3471:3501  _ecAdd(x1, y1, z1, x1, y1, z1) */\n      tag_179\n        /* \"HeiswapV0.sol\":3478:3480  x1 */\n      dup7\n        /* \"HeiswapV0.sol\":3482:3484  y1 */\n      dup7\n        /* \"HeiswapV0.sol\":3486:3488  z1 */\n      dup7\n        /* \"HeiswapV0.sol\":3490:3492  x1 */\n      dup10\n        /* \"HeiswapV0.sol\":3494:3496  y1 */\n      dup10\n        /* \"HeiswapV0.sol\":3498:3500  z1 */\n      dup10\n        /* \"HeiswapV0.sol\":3471:3477  _ecAdd */\n      tag_78\n        /* \"HeiswapV0.sol\":3471:3501  _ecAdd(x1, y1, z1, x1, y1, z1) */\n      jump\t// in\n    tag_179:\n        /* \"HeiswapV0.sol\":3456:3501  (x3, y3, z3) = _ecAdd(x1, y1, z1, x1, y1, z1) */\n      dup1\n      swap4\n      pop\n      dup2\n      swap5\n      pop\n      dup3\n      swap6\n      pop\n      pop\n      pop\n      pop\n        /* \"HeiswapV0.sol\":3323:3508  function _ecDouble(uint256 x1, uint256 y1, uint256 z1) public pure... */\n      swap4\n      pop\n      swap4\n      pop\n      swap4\n      swap1\n      pop\n      jump\t// out\n\n    auxdata: 0xa265627a7a72305820e35178fc47bae5908ce314900aeb09c80a1855878478230d6d13b992bedc9dd264736f6c63430005090032\n}\n",
    "bytecode": {
      "linkReferences": {},
      "object": "608060405234801561001057600080fd5b50611425806100206000396000f3fe608060405234801561001057600080fd5b50600436106101375760003560e01c80635f972df8116100b8578063913f424c1161007c578063913f424c146105c3578063a01539fc14610631578063bb8c256a146106ea578063db31883314610751578063e241c1d9146107d3578063f47289e11461083057610137565b80635f972df81461041a57806366ce10b7146104815780638081a1e7146104db5780638940aebe146105385780638cecf66e1461058157610137565b80632d58c9a2116100ff5780632d58c9a2146102b45780632e52d606146102d2578063426817fa146102f05780634df7e3d0146103955780635b764811146103b357610137565b80630138e31b1461013c578063022079d9146101a357806306c91ce3146102115780630dbe671f1461022f5780631ecfe64d1461024d575b600080fd5b6101866004803603608081101561015257600080fd5b8101908080359060200190929190803590602001909291908035906020019092919080359060200190929190505050610894565b604051808381526020018281526020019250505060405180910390f35b6101f7600480360360a08110156101b957600080fd5b810190808035906020019092919080359060200190929190803590602001909291908035906020019092919080359060200190929190505050610952565b604051808215151515815260200191505060405180910390f35b6102196109ce565b6040518082815260200191505060405180910390f35b6102376109f2565b6040518082815260200191505060405180910390f35b6102976004803603608081101561026357600080fd5b81019080803590602001909291908035906020019092919080359060200190929190803590602001909291905050506109f7565b604051808381526020018281526020019250505060405180910390f35b6102bc610ad7565b6040518082815260200191505060405180910390f35b6102da610afb565b6040518082815260200191505060405180910390f35b6103536004803603604081101561030657600080fd5b8101908080604001906002806020026040519081016040528092919082600260200280828437600081840152601f19601f8201169050808301925050505050509192919290505050610b1f565b604051808273ffffffffffffffffffffffffffffffffffffffff1673ffffffffffffffffffffffffffffffffffffffff16815260200191505060405180910390f35b61039d610b92565b6040518082815260200191505060405180910390f35b6103fd600480360360808110156103c957600080fd5b8101908080359060200190929190803590602001909291908035906020019092919080359060200190929190505050610b97565b604051808381526020018281526020019250505060405180910390f35b6104646004803603608081101561043057600080fd5b8101908080359060200190929190803590602001909291908035906020019092919080359060200190929190505050610c01565b604051808381526020018281526020019250505060405180910390f35b6104c16004803603606081101561049757600080fd5b81019080803590602001909291908035906020019092919080359060200190929190505050610c6b565b604051808215151515815260200191505060405180910390f35b61051b600480360360608110156104f157600080fd5b81019080803590602001909291908035906020019092919080359060200190929190505050610cc3565b604051808381526020018281526020019250505060405180910390f35b6105646004803603602081101561054e57600080fd5b8101908080359060200190929190505050610d4f565b604051808381526020018281526020019250505060405180910390f35b6105ad6004803603602081101561059757600080fd5b8101908080359060200190929190505050610da6565b6040518082815260200191505060405180910390f35b61060d600480360360808110156105d957600080fd5b8101908080359060200190929190803590602001909291908035906020019092919080359060200190929190505050610e94565b60405180848152602001838152602001828152602001935050505060405180910390f35b6106a86004803603608081101561064757600080fd5b810190808035906020019092919080604001906002806020026040519081016040528092919082600260200280828437600081840152601f19601f820116905080830192505050505050919291929080359060200190929190505050610f5e565b604051808273ffffffffffffffffffffffffffffffffffffffff1673ffffffffffffffffffffffffffffffffffffffff16815260200191505060405180910390f35b6107346004803603608081101561070057600080fd5b8101908080359060200190929190803590602001909291908035906020019092919080359060200190929190505050611089565b604051808381526020018281526020019250505060405180910390f35b6107af600480360360c081101561076757600080fd5b81019080803590602001909291908035906020019092919080359060200190929190803590602001909291908035906020019092919080359060200190929190505050611119565b60405180848152602001838152602001828152602001935050505060405180910390f35b610813600480360360608110156107e957600080fd5b8101908080359060200190929190803590602001909291908035906020019092919050505061133c565b604051808381526020018281526020019250505060405180910390f35b6108706004803603606081101561084657600080fd5b810190808035906020019092919080359060200190929190803590602001909291905050506113c8565b60405180848152602001838152602001828152602001935050505060405180910390f35b6000807ffffffffffffffffffffffffffffffffffffffffffffffffffffffffefffffc2f806108bf57fe5b7ffffffffffffffffffffffffffffffffffffffffffffffffffffffffefffffc2f806108e757fe5b8686097ffffffffffffffffffffffffffffffffffffffffffffffffffffffffefffffc2f8061091257fe5b888609087ffffffffffffffffffffffffffffffffffffffffffffffffffffffffefffffc2f8061093e57fe5b848709809250819350505094509492505050565b600080610975600060405180604001604052808a81526020018981525087610f5e565b90508073ffffffffffffffffffffffffffffffffffffffff166109ab604051806040016040528087815260200186815250610b1f565b73ffffffffffffffffffffffffffffffffffffffff161491505095945050505050565b7f79be667ef9dcbbac55a06295ce870b07029bfcdb2dce28d959f2815b16f8179881565b600081565b6000807ffffffffffffffffffffffffffffffffffffffffffffffffffffffffefffffc2f80610a2257fe5b7ffffffffffffffffffffffffffffffffffffffffffffffffffffffffefffffc2f80610a4a57fe5b86867ffffffffffffffffffffffffffffffffffffffffffffffffffffffffefffffc2f03097ffffffffffffffffffffffffffffffffffffffffffffffffffffffffefffffc2f80610a9757fe5b888609087ffffffffffffffffffffffffffffffffffffffffffffffffffffffffefffffc2f80610ac357fe5b848709809250819350505094509492505050565b7f483ada7726a3c4655da4fbfc0e1108a8fd17b448a68554199c47d08ffb10d4b881565b7ffffffffffffffffffffffffffffffffffffffffffffffffffffffffefffffc2f81565b600073ffffffffffffffffffffffffffffffffffffffff82600060028110610b4357fe5b602002015183600160028110610b5557fe5b602002015160405160200180838152602001828152602001925050506040516020818303038152906040528051906020012060001c169050919050565b600781565b6000807ffffffffffffffffffffffffffffffffffffffffffffffffffffffffefffffc2f80610bc257fe5b8487097ffffffffffffffffffffffffffffffffffffffffffffffffffffffffefffffc2f80610bed57fe5b848709809250819350505094509492505050565b6000807ffffffffffffffffffffffffffffffffffffffffffffffffffffffffefffffc2f80610c2c57fe5b8387097ffffffffffffffffffffffffffffffffffffffffffffffffffffffffefffffc2f80610c5757fe5b858709809250819350505094509492505050565b6000610cba7f79be667ef9dcbbac55a06295ce870b07029bfcdb2dce28d959f2815b16f817987f483ada7726a3c4655da4fbfc0e1108a8fd17b448a68554199c47d08ffb10d4b8868686610952565b90509392505050565b6000806000610cd58487876001610e94565b809350819450829550505050610cea81610da6565b90507ffffffffffffffffffffffffffffffffffffffffffffffffffffffffefffffc2f80610d1457fe5b81840992507ffffffffffffffffffffffffffffffffffffffffffffffffffffffffefffffc2f80610d4157fe5b818309915050935093915050565b600080610d9d7f79be667ef9dcbbac55a06295ce870b07029bfcdb2dce28d959f2815b16f817987f483ada7726a3c4655da4fbfc0e1108a8fd17b448a68554199c47d08ffb10d4b885610cc3565b91509150915091565b6000806000905060006001905060007ffffffffffffffffffffffffffffffffffffffffffffffffffffffffefffffc2f9050600085905060005b60008214610e8757818381610df157fe5b049050837ffffffffffffffffffffffffffffffffffffffffffffffffffffffffefffffc2f80610e1d57fe5b7ffffffffffffffffffffffffffffffffffffffffffffffffffffffffefffffc2f80610e4557fe5b8684097ffffffffffffffffffffffffffffffffffffffffffffffffffffffffefffffc2f03870880955081965050508182820284038093508194505050610de0565b8495505050505050919050565b6000806000808790506000879050600087905060008790506000809050600080905060006001905060008e1415610ee557600080600182925081915080905099509950995050505050505050610f54565b5b60008714610f3d5760006001881614610f1457610f07838383898989611119565b8093508194508295505050505b60028781610f1e57fe5b049650610f2c8686866113c8565b809650819750829850505050610ee6565b828282809a50819b50829c50505050505050505050505b9450945094915050565b60008084905060007ffffffffffffffffffffffffffffffffebaaedce6af48a03bbfd25e8cd036414190508082820381610f9457fe5b0691508080610f9f57fe5b85600060028110610fac57fe5b60200201518309915060018260001b6000600288600160028110610fcc57fe5b602002015181610fd857fe5b061415610fe657601b610fe9565b601c5b87600060028110610ff657fe5b602002015160001b848061100657fe5b8960006002811061101357fe5b6020020151890960001b60405160008152602001604052604051808581526020018460ff1660ff1681526020018381526020018281526020019450505050506020604051602081039080840390855afa158015611074573d6000803e3d6000fd5b50505060206040510351925050509392505050565b600080600061109e8787600188886001611119565b8093508194508295505050506110b381610da6565b90507ffffffffffffffffffffffffffffffffffffffffffffffffffffffffefffffc2f806110dd57fe5b81840992507ffffffffffffffffffffffffffffffffffffffffffffffffffffffffefffffc2f8061110a57fe5b81830991505094509492505050565b6000806000806000806000808d148015611133575060008c145b1561114a5789898996509650965050505050611330565b60008a14801561115a5750600089145b15611171578c8c8c96509650965050505050611330565b898d14801561117f5750888c145b156111df576111908d8c8f8e610b97565b80945081955050506111a6848460036001610b97565b80945081955050506111bc848460006001610894565b80945081955050506111d28c8c60026001610b97565b8092508193505050611208565b6111eb89898e8e6109f7565b80945081955050506111ff8a898f8e6109f7565b80925081935050505b61121484848484610c01565b809450819550505061122884848686610b97565b809350819850505061123c87838f8e6109f7565b809350819850505061125087838c8b6109f7565b80935081985050506112648d8c89856109f7565b809250819750505061127886828686610b97565b809250819750505061128c86828e8e6109f7565b8092508197505050808214611327577ffffffffffffffffffffffffffffffffffffffffffffffffffffffffefffffc2f806112c357fe5b81880996507ffffffffffffffffffffffffffffffffffffffffffffffffffffffffefffffc2f806112f057fe5b82870995507ffffffffffffffffffffffffffffffffffffffffffffffffffffffffefffffc2f8061131d57fe5b818309945061132b565b8194505b505050505b96509650969350505050565b600080600061134e8686866001610e94565b80935081945082955050505061136381610da6565b90507ffffffffffffffffffffffffffffffffffffffffffffffffffffffffefffffc2f8061138d57fe5b81840992507ffffffffffffffffffffffffffffffffffffffffffffffffffffffffefffffc2f806113ba57fe5b818309915050935093915050565b60008060006113db868686898989611119565b8093508194508295505050509350935093905056fea265627a7a72305820e35178fc47bae5908ce314900aeb09c80a1855878478230d6d13b992bedc9dd264736f6c63430005090032",
      "opcodes": "PUSH1 0x80 PUSH1 0x40 MSTORE CALLVALUE DUP1 ISZERO PUSH2 0x10 JUMPI PUSH1 0x0 DUP1 REVERT JUMPDEST POP PUSH2 0x1425 DUP1 PUSH2 0x20 PUSH1 0x0 CODECOPY PUSH1 0x0 RETURN INVALID PUSH1 0x80 PUSH1 0x40 MSTORE CALLVALUE DUP1 ISZERO PUSH2 0x10 JUMPI PUSH1 0x0 DUP1 REVERT JUMPDEST POP PUSH1 0x4 CALLDATASIZE LT PUSH2 0x137 JUMPI PUSH1 0x0 CALLDATALOAD PUSH1 0xE0 SHR DUP1 PUSH4 0x5F972DF8 GT PUSH2 0xB8 JUMPI DUP1 PUSH4 0x913F424C GT PUSH2 0x7C JUMPI DUP1 PUSH4 0x913F424C EQ PUSH2 0x5C3 JUMPI DUP1 PUSH4 0xA01539FC EQ PUSH2 0x631 JUMPI DUP1 PUSH4 0xBB8C256A EQ PUSH2 0x6EA JUMPI DUP1 PUSH4 0xDB318833 EQ PUSH2 0x751 JUMPI DUP1 PUSH4 0xE241C1D9 EQ PUSH2 0x7D3 JUMPI DUP1 PUSH4 0xF47289E1 EQ PUSH2 0x830 JUMPI PUSH2 0x137 JUMP JUMPDEST DUP1 PUSH4 0x5F972DF8 EQ PUSH2 0x41A JUMPI DUP1 PUSH4 0x66CE10B7 EQ PUSH2 0x481 JUMPI DUP1 PUSH4 0x8081A1E7 EQ PUSH2 0x4DB JUMPI DUP1 PUSH4 0x8940AEBE EQ PUSH2 0x538 JUMPI DUP1 PUSH4 0x8CECF66E EQ PUSH2 0x581 JUMPI PUSH2 0x137 JUMP JUMPDEST DUP1 PUSH4 0x2D58C9A2 GT PUSH2 0xFF JUMPI DUP1 PUSH4 0x2D58C9A2 EQ PUSH2 0x2B4 JUMPI DUP1 PUSH4 0x2E52D606 EQ PUSH2 0x2D2 JUMPI DUP1 PUSH4 0x426817FA EQ PUSH2 0x2F0 JUMPI DUP1 PUSH4 0x4DF7E3D0 EQ PUSH2 0x395 JUMPI DUP1 PUSH4 0x5B764811 EQ PUSH2 0x3B3 JUMPI PUSH2 0x137 JUMP JUMPDEST DUP1 PUSH4 0x138E31B EQ PUSH2 0x13C JUMPI DUP1 PUSH4 0x22079D9 EQ PUSH2 0x1A3 JUMPI DUP1 PUSH4 0x6C91CE3 EQ PUSH2 0x211 JUMPI DUP1 PUSH4 0xDBE671F EQ PUSH2 0x22F JUMPI DUP1 PUSH4 0x1ECFE64D EQ PUSH2 0x24D JUMPI JUMPDEST PUSH1 0x0 DUP1 REVERT JUMPDEST PUSH2 0x186 PUSH1 0x4 DUP1 CALLDATASIZE SUB PUSH1 0x80 DUP2 LT ISZERO PUSH2 0x152 JUMPI PUSH1 0x0 DUP1 REVERT JUMPDEST DUP2 ADD SWAP1 DUP1 DUP1 CALLDATALOAD SWAP1 PUSH1 0x20 ADD SWAP1 SWAP3 SWAP2 SWAP1 DUP1 CALLDATALOAD SWAP1 PUSH1 0x20 ADD SWAP1 SWAP3 SWAP2 SWAP1 DUP1 CALLDATALOAD SWAP1 PUSH1 0x20 ADD SWAP1 SWAP3 SWAP2 SWAP1 DUP1 CALLDATALOAD SWAP1 PUSH1 0x20 ADD SWAP1 SWAP3 SWAP2 SWAP1 POP POP POP PUSH2 0x894 JUMP JUMPDEST PUSH1 0x40 MLOAD DUP1 DUP4 DUP2 MSTORE PUSH1 0x20 ADD DUP3 DUP2 MSTORE PUSH1 0x20 ADD SWAP3 POP POP POP PUSH1 0x40 MLOAD DUP1 SWAP2 SUB SWAP1 RETURN JUMPDEST PUSH2 0x1F7 PUSH1 0x4 DUP1 CALLDATASIZE SUB PUSH1 0xA0 DUP2 LT ISZERO PUSH2 0x1B9 JUMPI PUSH1 0x0 DUP1 REVERT JUMPDEST DUP2 ADD SWAP1 DUP1 DUP1 CALLDATALOAD SWAP1 PUSH1 0x20 ADD SWAP1 SWAP3 SWAP2 SWAP1 DUP1 CALLDATALOAD SWAP1 PUSH1 0x20 ADD SWAP1 SWAP3 SWAP2 SWAP1 DUP1 CALLDATALOAD SWAP1 PUSH1 0x20 ADD SWAP1 SWAP3 SWAP2 SWAP1 DUP1 CALLDATALOAD SWAP1 PUSH1 0x20 ADD SWAP1 SWAP3 SWAP2 SWAP1 DUP1 CALLDATALOAD SWAP1 PUSH1 0x20 ADD SWAP1 SWAP3 SWAP2 SWAP1 POP POP POP PUSH2 0x952 JUMP JUMPDEST PUSH1 0x40 MLOAD DUP1 DUP3 ISZERO ISZERO ISZERO ISZERO DUP2 MSTORE PUSH1 0x20 ADD SWAP2 POP POP PUSH1 0x40 MLOAD DUP1 SWAP2 SUB SWAP1 RETURN JUMPDEST PUSH2 0x219 PUSH2 0x9CE JUMP JUMPDEST PUSH1 0x40 MLOAD DUP1 DUP3 DUP2 MSTORE PUSH1 0x20 ADD SWAP2 POP POP PUSH1 0x40 MLOAD DUP1 SWAP2 SUB SWAP1 RETURN JUMPDEST PUSH2 0x237 PUSH2 0x9F2 JUMP JUMPDEST PUSH1 0x40 MLOAD DUP1 DUP3 DUP2 MSTORE PUSH1 0x20 ADD SWAP2 POP POP PUSH1 0x40 MLOAD DUP1 SWAP2 SUB SWAP1 RETURN JUMPDEST PUSH2 0x297 PUSH1 0x4 DUP1 CALLDATASIZE SUB PUSH1 0x80 DUP2 LT ISZERO PUSH2 0x263 JUMPI PUSH1 0x0 DUP1 REVERT JUMPDEST DUP2 ADD SWAP1 DUP1 DUP1 CALLDATALOAD SWAP1 PUSH1 0x20 ADD SWAP1 SWAP3 SWAP2 SWAP1 DUP1 CALLDATALOAD SWAP1 PUSH1 0x20 ADD SWAP1 SWAP3 SWAP2 SWAP1 DUP1 CALLDATALOAD SWAP1 PUSH1 0x20 ADD SWAP1 SWAP3 SWAP2 SWAP1 DUP1 CALLDATALOAD SWAP1 PUSH1 0x20 ADD SWAP1 SWAP3 SWAP2 SWAP1 POP POP POP PUSH2 0x9F7 JUMP JUMPDEST PUSH1 0x40 MLOAD DUP1 DUP4 DUP2 MSTORE PUSH1 0x20 ADD DUP3 DUP2 MSTORE PUSH1 0x20 ADD SWAP3 POP POP POP PUSH1 0x40 MLOAD DUP1 SWAP2 SUB SWAP1 RETURN JUMPDEST PUSH2 0x2BC PUSH2 0xAD7 JUMP JUMPDEST PUSH1 0x40 MLOAD DUP1 DUP3 DUP2 MSTORE PUSH1 0x20 ADD SWAP2 POP POP PUSH1 0x40 MLOAD DUP1 SWAP2 SUB SWAP1 RETURN JUMPDEST PUSH2 0x2DA PUSH2 0xAFB JUMP JUMPDEST PUSH1 0x40 MLOAD DUP1 DUP3 DUP2 MSTORE PUSH1 0x20 ADD SWAP2 POP POP PUSH1 0x40 MLOAD DUP1 SWAP2 SUB SWAP1 RETURN JUMPDEST PUSH2 0x353 PUSH1 0x4 DUP1 CALLDATASIZE SUB PUSH1 0x40 DUP2 LT ISZERO PUSH2 0x306 JUMPI PUSH1 0x0 DUP1 REVERT JUMPDEST DUP2 ADD SWAP1 DUP1 DUP1 PUSH1 0x40 ADD SWAP1 PUSH1 0x2 DUP1 PUSH1 0x20 MUL PUSH1 0x40 MLOAD SWAP1 DUP2 ADD PUSH1 0x40 MSTORE DUP1 SWAP3 SWAP2 SWAP1 DUP3 PUSH1 0x2 PUSH1 0x20 MUL DUP1 DUP3 DUP5 CALLDATACOPY PUSH1 0x0 DUP2 DUP5 ADD MSTORE PUSH1 0x1F NOT PUSH1 0x1F DUP3 ADD AND SWAP1 POP DUP1 DUP4 ADD SWAP3 POP POP POP POP POP POP SWAP2 SWAP3 SWAP2 SWAP3 SWAP1 POP POP POP PUSH2 0xB1F JUMP JUMPDEST PUSH1 0x40 MLOAD DUP1 DUP3 PUSH20 0xFFFFFFFFFFFFFFFFFFFFFFFFFFFFFFFFFFFFFFFF AND PUSH20 0xFFFFFFFFFFFFFFFFFFFFFFFFFFFFFFFFFFFFFFFF AND DUP2 MSTORE PUSH1 0x20 ADD SWAP2 POP POP PUSH1 0x40 MLOAD DUP1 SWAP2 SUB SWAP1 RETURN JUMPDEST PUSH2 0x39D PUSH2 0xB92 JUMP JUMPDEST PUSH1 0x40 MLOAD DUP1 DUP3 DUP2 MSTORE PUSH1 0x20 ADD SWAP2 POP POP PUSH1 0x40 MLOAD DUP1 SWAP2 SUB SWAP1 RETURN JUMPDEST PUSH2 0x3FD PUSH1 0x4 DUP1 CALLDATASIZE SUB PUSH1 0x80 DUP2 LT ISZERO PUSH2 0x3C9 JUMPI PUSH1 0x0 DUP1 REVERT JUMPDEST DUP2 ADD SWAP1 DUP1 DUP1 CALLDATALOAD SWAP1 PUSH1 0x20 ADD SWAP1 SWAP3 SWAP2 SWAP1 DUP1 CALLDATALOAD SWAP1 PUSH1 0x20 ADD SWAP1 SWAP3 SWAP2 SWAP1 DUP1 CALLDATALOAD SWAP1 PUSH1 0x20 ADD SWAP1 SWAP3 SWAP2 SWAP1 DUP1 CALLDATALOAD SWAP1 PUSH1 0x20 ADD SWAP1 SWAP3 SWAP2 SWAP1 POP POP POP PUSH2 0xB97 JUMP JUMPDEST PUSH1 0x40 MLOAD DUP1 DUP4 DUP2 MSTORE PUSH1 0x20 ADD DUP3 DUP2 MSTORE PUSH1 0x20 ADD SWAP3 POP POP POP PUSH1 0x40 MLOAD DUP1 SWAP2 SUB SWAP1 RETURN JUMPDEST PUSH2 0x464 PUSH1 0x4 DUP1 CALLDATASIZE SUB PUSH1 0x80 DUP2 LT ISZERO PUSH2 0x430 JUMPI PUSH1 0x0 DUP1 REVERT JUMPDEST DUP2 ADD SWAP1 DUP1 DUP1 CALLDATALOAD SWAP1 PUSH1 0x20 ADD SWAP1 SWAP3 SWAP2 SWAP1 DUP1 CALLDATALOAD SWAP1 PUSH1 0x20 ADD SWAP1 SWAP3 SWAP2 SWAP1 DUP1 CALLDATALOAD SWAP1 PUSH1 0x20 ADD SWAP1 SWAP3 SWAP2 SWAP1 DUP1 CALLDATALOAD SWAP1 PUSH1 0x20 ADD SWAP1 SWAP3 SWAP2 SWAP1 POP POP POP PUSH2 0xC01 JUMP JUMPDEST PUSH1 0x40 MLOAD DUP1 DUP4 DUP2 MSTORE PUSH1 0x20 ADD DUP3 DUP2 MSTORE PUSH1 0x20 ADD SWAP3 POP POP POP PUSH1 0x40 MLOAD DUP1 SWAP2 SUB SWAP1 RETURN JUMPDEST PUSH2 0x4C1 PUSH1 0x4 DUP1 CALLDATASIZE SUB PUSH1 0x60 DUP2 LT ISZERO PUSH2 0x497 JUMPI PUSH1 0x0 DUP1 REVERT JUMPDEST DUP2 ADD SWAP1 DUP1 DUP1 CALLDATALOAD SWAP1 PUSH1 0x20 ADD SWAP1 SWAP3 SWAP2 SWAP1 DUP1 CALLDATALOAD SWAP1 PUSH1 0x20 ADD SWAP1 SWAP3 SWAP2 SWAP1 DUP1 CALLDATALOAD SWAP1 PUSH1 0x20 ADD SWAP1 SWAP3 SWAP2 SWAP1 POP POP POP PUSH2 0xC6B JUMP JUMPDEST PUSH1 0x40 MLOAD DUP1 DUP3 ISZERO ISZERO ISZERO ISZERO DUP2 MSTORE PUSH1 0x20 ADD SWAP2 POP POP PUSH1 0x40 MLOAD DUP1 SWAP2 SUB SWAP1 RETURN JUMPDEST PUSH2 0x51B PUSH1 0x4 DUP1 CALLDATASIZE SUB PUSH1 0x60 DUP2 LT ISZERO PUSH2 0x4F1 JUMPI PUSH1 0x0 DUP1 REVERT JUMPDEST DUP2 ADD SWAP1 DUP1 DUP1 CALLDATALOAD SWAP1 PUSH1 0x20 ADD SWAP1 SWAP3 SWAP2 SWAP1 DUP1 CALLDATALOAD SWAP1 PUSH1 0x20 ADD SWAP1 SWAP3 SWAP2 SWAP1 DUP1 CALLDATALOAD SWAP1 PUSH1 0x20 ADD SWAP1 SWAP3 SWAP2 SWAP1 POP POP POP PUSH2 0xCC3 JUMP JUMPDEST PUSH1 0x40 MLOAD DUP1 DUP4 DUP2 MSTORE PUSH1 0x20 ADD DUP3 DUP2 MSTORE PUSH1 0x20 ADD SWAP3 POP POP POP PUSH1 0x40 MLOAD DUP1 SWAP2 SUB SWAP1 RETURN JUMPDEST PUSH2 0x564 PUSH1 0x4 DUP1 CALLDATASIZE SUB PUSH1 0x20 DUP2 LT ISZERO PUSH2 0x54E JUMPI PUSH1 0x0 DUP1 REVERT JUMPDEST DUP2 ADD SWAP1 DUP1 DUP1 CALLDATALOAD SWAP1 PUSH1 0x20 ADD SWAP1 SWAP3 SWAP2 SWAP1 POP POP POP PUSH2 0xD4F JUMP JUMPDEST PUSH1 0x40 MLOAD DUP1 DUP4 DUP2 MSTORE PUSH1 0x20 ADD DUP3 DUP2 MSTORE PUSH1 0x20 ADD SWAP3 POP POP POP PUSH1 0x40 MLOAD DUP1 SWAP2 SUB SWAP1 RETURN JUMPDEST PUSH2 0x5AD PUSH1 0x4 DUP1 CALLDATASIZE SUB PUSH1 0x20 DUP2 LT ISZERO PUSH2 0x597 JUMPI PUSH1 0x0 DUP1 REVERT JUMPDEST DUP2 ADD SWAP1 DUP1 DUP1 CALLDATALOAD SWAP1 PUSH1 0x20 ADD SWAP1 SWAP3 SWAP2 SWAP1 POP POP POP PUSH2 0xDA6 JUMP JUMPDEST PUSH1 0x40 MLOAD DUP1 DUP3 DUP2 MSTORE PUSH1 0x20 ADD SWAP2 POP POP PUSH1 0x40 MLOAD DUP1 SWAP2 SUB SWAP1 RETURN JUMPDEST PUSH2 0x60D PUSH1 0x4 DUP1 CALLDATASIZE SUB PUSH1 0x80 DUP2 LT ISZERO PUSH2 0x5D9 JUMPI PUSH1 0x0 DUP1 REVERT JUMPDEST DUP2 ADD SWAP1 DUP1 DUP1 CALLDATALOAD SWAP1 PUSH1 0x20 ADD SWAP1 SWAP3 SWAP2 SWAP1 DUP1 CALLDATALOAD SWAP1 PUSH1 0x20 ADD SWAP1 SWAP3 SWAP2 SWAP1 DUP1 CALLDATALOAD SWAP1 PUSH1 0x20 ADD SWAP1 SWAP3 SWAP2 SWAP1 DUP1 CALLDATALOAD SWAP1 PUSH1 0x20 ADD SWAP1 SWAP3 SWAP2 SWAP1 POP POP POP PUSH2 0xE94 JUMP JUMPDEST PUSH1 0x40 MLOAD DUP1 DUP5 DUP2 MSTORE PUSH1 0x20 ADD DUP4 DUP2 MSTORE PUSH1 0x20 ADD DUP3 DUP2 MSTORE PUSH1 0x20 ADD SWAP4 POP POP POP POP PUSH1 0x40 MLOAD DUP1 SWAP2 SUB SWAP1 RETURN JUMPDEST PUSH2 0x6A8 PUSH1 0x4 DUP1 CALLDATASIZE SUB PUSH1 0x80 DUP2 LT ISZERO PUSH2 0x647 JUMPI PUSH1 0x0 DUP1 REVERT JUMPDEST DUP2 ADD SWAP1 DUP1 DUP1 CALLDATALOAD SWAP1 PUSH1 0x20 ADD SWAP1 SWAP3 SWAP2 SWAP1 DUP1 PUSH1 0x40 ADD SWAP1 PUSH1 0x2 DUP1 PUSH1 0x20 MUL PUSH1 0x40 MLOAD SWAP1 DUP2 ADD PUSH1 0x40 MSTORE DUP1 SWAP3 SWAP2 SWAP1 DUP3 PUSH1 0x2 PUSH1 0x20 MUL DUP1 DUP3 DUP5 CALLDATACOPY PUSH1 0x0 DUP2 DUP5 ADD MSTORE PUSH1 0x1F NOT PUSH1 0x1F DUP3 ADD AND SWAP1 POP DUP1 DUP4 ADD SWAP3 POP POP POP POP POP POP SWAP2 SWAP3 SWAP2 SWAP3 SWAP1 DUP1 CALLDATALOAD SWAP1 PUSH1 0x20 ADD SWAP1 SWAP3 SWAP2 SWAP1 POP POP POP PUSH2 0xF5E JUMP JUMPDEST PUSH1 0x40 MLOAD DUP1 DUP3 PUSH20 0xFFFFFFFFFFFFFFFFFFFFFFFFFFFFFFFFFFFFFFFF AND PUSH20 0xFFFFFFFFFFFFFFFFFFFFFFFFFFFFFFFFFFFFFFFF AND DUP2 MSTORE PUSH1 0x20 ADD SWAP2 POP POP PUSH1 0x40 MLOAD DUP1 SWAP2 SUB SWAP1 RETURN JUMPDEST PUSH2 0x734 PUSH1 0x4 DUP1 CALLDATASIZE SUB PUSH1 0x80 DUP2 LT ISZERO PUSH2 0x700 JUMPI PUSH1 0x0 DUP1 REVERT JUMPDEST DUP2 ADD SWAP1 DUP1 DUP1 CALLDATALOAD SWAP1 PUSH1 0x20 ADD SWAP1 SWAP3 SWAP2 SWAP1 DUP1 CALLDATALOAD SWAP1 PUSH1 0x20 ADD SWAP1 SWAP3 SWAP2 SWAP1 DUP1 CALLDATALOAD SWAP1 PUSH1 0x20 ADD SWAP1 SWAP3 SWAP2 SWAP1 DUP1 CALLDATALOAD SWAP1 PUSH1 0x20 ADD SWAP1 SWAP3 SWAP2 SWAP1 POP POP POP PUSH2 0x1089 JUMP JUMPDEST PUSH1 0x40 MLOAD DUP1 DUP4 DUP2 MSTORE PUSH1 0x20 ADD DUP3 DUP2 MSTORE PUSH1 0x20 ADD SWAP3 POP POP POP PUSH1 0x40 MLOAD DUP1 SWAP2 SUB SWAP1 RETURN JUMPDEST PUSH2 0x7AF PUSH1 0x4 DUP1 CALLDATASIZE SUB PUSH1 0xC0 DUP2 LT ISZERO PUSH2 0x767 JUMPI PUSH1 0x0 DUP1 REVERT JUMPDEST DUP2 ADD SWAP1 DUP1 DUP1 CALLDATALOAD SWAP1 PUSH1 0x20 ADD SWAP1 SWAP3 SWAP2 SWAP1 DUP1 CALLDATALOAD SWAP1 PUSH1 0x20 ADD SWAP1 SWAP3 SWAP2 SWAP1 DUP1 CALLDATALOAD SWAP1 PUSH1 0x20 ADD SWAP1 SWAP3 SWAP2 SWAP1 DUP1 CALLDATALOAD SWAP1 PUSH1 0x20 ADD SWAP1 SWAP3 SWAP2 SWAP1 DUP1 CALLDATALOAD SWAP1 PUSH1 0x20 ADD SWAP1 SWAP3 SWAP2 SWAP1 DUP1 CALLDATALOAD SWAP1 PUSH1 0x20 ADD SWAP1 SWAP3 SWAP2 SWAP1 POP POP POP PUSH2 0x1119 JUMP JUMPDEST PUSH1 0x40 MLOAD DUP1 DUP5 DUP2 MSTORE PUSH1 0x20 ADD DUP4 DUP2 MSTORE PUSH1 0x20 ADD DUP3 DUP2 MSTORE PUSH1 0x20 ADD SWAP4 POP POP POP POP PUSH1 0x40 MLOAD DUP1 SWAP2 SUB SWAP1 RETURN JUMPDEST PUSH2 0x813 PUSH1 0x4 DUP1 CALLDATASIZE SUB PUSH1 0x60 DUP2 LT ISZERO PUSH2 0x7E9 JUMPI PUSH1 0x0 DUP1 REVERT JUMPDEST DUP2 ADD SWAP1 DUP1 DUP1 CALLDATALOAD SWAP1 PUSH1 0x20 ADD SWAP1 SWAP3 SWAP2 SWAP1 DUP1 CALLDATALOAD SWAP1 PUSH1 0x20 ADD SWAP1 SWAP3 SWAP2 SWAP1 DUP1 CALLDATALOAD SWAP1 PUSH1 0x20 ADD SWAP1 SWAP3 SWAP2 SWAP1 POP POP POP PUSH2 0x133C JUMP JUMPDEST PUSH1 0x40 MLOAD DUP1 DUP4 DUP2 MSTORE PUSH1 0x20 ADD DUP3 DUP2 MSTORE PUSH1 0x20 ADD SWAP3 POP POP POP PUSH1 0x40 MLOAD DUP1 SWAP2 SUB SWAP1 RETURN JUMPDEST PUSH2 0x870 PUSH1 0x4 DUP1 CALLDATASIZE SUB PUSH1 0x60 DUP2 LT ISZERO PUSH2 0x846 JUMPI PUSH1 0x0 DUP1 REVERT JUMPDEST DUP2 ADD SWAP1 DUP1 DUP1 CALLDATALOAD SWAP1 PUSH1 0x20 ADD SWAP1 SWAP3 SWAP2 SWAP1 DUP1 CALLDATALOAD SWAP1 PUSH1 0x20 ADD SWAP1 SWAP3 SWAP2 SWAP1 DUP1 CALLDATALOAD SWAP1 PUSH1 0x20 ADD SWAP1 SWAP3 SWAP2 SWAP1 POP POP POP PUSH2 0x13C8 JUMP JUMPDEST PUSH1 0x40 MLOAD DUP1 DUP5 DUP2 MSTORE PUSH1 0x20 ADD DUP4 DUP2 MSTORE PUSH1 0x20 ADD DUP3 DUP2 MSTORE PUSH1 0x20 ADD SWAP4 POP POP POP POP PUSH1 0x40 MLOAD DUP1 SWAP2 SUB SWAP1 RETURN JUMPDEST PUSH1 0x0 DUP1 PUSH32 0xFFFFFFFFFFFFFFFFFFFFFFFFFFFFFFFFFFFFFFFFFFFFFFFFFFFFFFFEFFFFFC2F DUP1 PUSH2 0x8BF JUMPI INVALID JUMPDEST PUSH32 0xFFFFFFFFFFFFFFFFFFFFFFFFFFFFFFFFFFFFFFFFFFFFFFFFFFFFFFFEFFFFFC2F DUP1 PUSH2 0x8E7 JUMPI INVALID JUMPDEST DUP7 DUP7 MULMOD PUSH32 0xFFFFFFFFFFFFFFFFFFFFFFFFFFFFFFFFFFFFFFFFFFFFFFFFFFFFFFFEFFFFFC2F DUP1 PUSH2 0x912 JUMPI INVALID JUMPDEST DUP9 DUP7 MULMOD ADDMOD PUSH32 0xFFFFFFFFFFFFFFFFFFFFFFFFFFFFFFFFFFFFFFFFFFFFFFFFFFFFFFFEFFFFFC2F DUP1 PUSH2 0x93E JUMPI INVALID JUMPDEST DUP5 DUP8 MULMOD DUP1 SWAP3 POP DUP2 SWAP4 POP POP POP SWAP5 POP SWAP5 SWAP3 POP POP POP JUMP JUMPDEST PUSH1 0x0 DUP1 PUSH2 0x975 PUSH1 0x0 PUSH1 0x40 MLOAD DUP1 PUSH1 0x40 ADD PUSH1 0x40 MSTORE DUP1 DUP11 DUP2 MSTORE PUSH1 0x20 ADD DUP10 DUP2 MSTORE POP DUP8 PUSH2 0xF5E JUMP JUMPDEST SWAP1 POP DUP1 PUSH20 0xFFFFFFFFFFFFFFFFFFFFFFFFFFFFFFFFFFFFFFFF AND PUSH2 0x9AB PUSH1 0x40 MLOAD DUP1 PUSH1 0x40 ADD PUSH1 0x40 MSTORE DUP1 DUP8 DUP2 MSTORE PUSH1 0x20 ADD DUP7 DUP2 MSTORE POP PUSH2 0xB1F JUMP JUMPDEST PUSH20 0xFFFFFFFFFFFFFFFFFFFFFFFFFFFFFFFFFFFFFFFF AND EQ SWAP2 POP POP SWAP6 SWAP5 POP POP POP POP POP JUMP JUMPDEST PUSH32 0x79BE667EF9DCBBAC55A06295CE870B07029BFCDB2DCE28D959F2815B16F81798 DUP2 JUMP JUMPDEST PUSH1 0x0 DUP2 JUMP JUMPDEST PUSH1 0x0 DUP1 PUSH32 0xFFFFFFFFFFFFFFFFFFFFFFFFFFFFFFFFFFFFFFFFFFFFFFFFFFFFFFFEFFFFFC2F DUP1 PUSH2 0xA22 JUMPI INVALID JUMPDEST PUSH32 0xFFFFFFFFFFFFFFFFFFFFFFFFFFFFFFFFFFFFFFFFFFFFFFFFFFFFFFFEFFFFFC2F DUP1 PUSH2 0xA4A JUMPI INVALID JUMPDEST DUP7 DUP7 PUSH32 0xFFFFFFFFFFFFFFFFFFFFFFFFFFFFFFFFFFFFFFFFFFFFFFFFFFFFFFFEFFFFFC2F SUB MULMOD PUSH32 0xFFFFFFFFFFFFFFFFFFFFFFFFFFFFFFFFFFFFFFFFFFFFFFFFFFFFFFFEFFFFFC2F DUP1 PUSH2 0xA97 JUMPI INVALID JUMPDEST DUP9 DUP7 MULMOD ADDMOD PUSH32 0xFFFFFFFFFFFFFFFFFFFFFFFFFFFFFFFFFFFFFFFFFFFFFFFFFFFFFFFEFFFFFC2F DUP1 PUSH2 0xAC3 JUMPI INVALID JUMPDEST DUP5 DUP8 MULMOD DUP1 SWAP3 POP DUP2 SWAP4 POP POP POP SWAP5 POP SWAP5 SWAP3 POP POP POP JUMP JUMPDEST PUSH32 0x483ADA7726A3C4655DA4FBFC0E1108A8FD17B448A68554199C47D08FFB10D4B8 DUP2 JUMP JUMPDEST PUSH32 0xFFFFFFFFFFFFFFFFFFFFFFFFFFFFFFFFFFFFFFFFFFFFFFFFFFFFFFFEFFFFFC2F DUP2 JUMP JUMPDEST PUSH1 0x0 PUSH20 0xFFFFFFFFFFFFFFFFFFFFFFFFFFFFFFFFFFFFFFFF DUP3 PUSH1 0x0 PUSH1 0x2 DUP2 LT PUSH2 0xB43 JUMPI INVALID JUMPDEST PUSH1 0x20 MUL ADD MLOAD DUP4 PUSH1 0x1 PUSH1 0x2 DUP2 LT PUSH2 0xB55 JUMPI INVALID JUMPDEST PUSH1 0x20 MUL ADD MLOAD PUSH1 0x40 MLOAD PUSH1 0x20 ADD DUP1 DUP4 DUP2 MSTORE PUSH1 0x20 ADD DUP3 DUP2 MSTORE PUSH1 0x20 ADD SWAP3 POP POP POP PUSH1 0x40 MLOAD PUSH1 0x20 DUP2 DUP4 SUB SUB DUP2 MSTORE SWAP1 PUSH1 0x40 MSTORE DUP1 MLOAD SWAP1 PUSH1 0x20 ADD KECCAK256 PUSH1 0x0 SHR AND SWAP1 POP SWAP2 SWAP1 POP JUMP JUMPDEST PUSH1 0x7 DUP2 JUMP JUMPDEST PUSH1 0x0 DUP1 PUSH32 0xFFFFFFFFFFFFFFFFFFFFFFFFFFFFFFFFFFFFFFFFFFFFFFFFFFFFFFFEFFFFFC2F DUP1 PUSH2 0xBC2 JUMPI INVALID JUMPDEST DUP5 DUP8 MULMOD PUSH32 0xFFFFFFFFFFFFFFFFFFFFFFFFFFFFFFFFFFFFFFFFFFFFFFFFFFFFFFFEFFFFFC2F DUP1 PUSH2 0xBED JUMPI INVALID JUMPDEST DUP5 DUP8 MULMOD DUP1 SWAP3 POP DUP2 SWAP4 POP POP POP SWAP5 POP SWAP5 SWAP3 POP POP POP JUMP JUMPDEST PUSH1 0x0 DUP1 PUSH32 0xFFFFFFFFFFFFFFFFFFFFFFFFFFFFFFFFFFFFFFFFFFFFFFFFFFFFFFFEFFFFFC2F DUP1 PUSH2 0xC2C JUMPI INVALID JUMPDEST DUP4 DUP8 MULMOD PUSH32 0xFFFFFFFFFFFFFFFFFFFFFFFFFFFFFFFFFFFFFFFFFFFFFFFFFFFFFFFEFFFFFC2F DUP1 PUSH2 0xC57 JUMPI INVALID JUMPDEST DUP6 DUP8 MULMOD DUP1 SWAP3 POP DUP2 SWAP4 POP POP POP SWAP5 POP SWAP5 SWAP3 POP POP POP JUMP JUMPDEST PUSH1 0x0 PUSH2 0xCBA PUSH32 0x79BE667EF9DCBBAC55A06295CE870B07029BFCDB2DCE28D959F2815B16F81798 PUSH32 0x483ADA7726A3C4655DA4FBFC0E1108A8FD17B448A68554199C47D08FFB10D4B8 DUP7 DUP7 DUP7 PUSH2 0x952 JUMP JUMPDEST SWAP1 POP SWAP4 SWAP3 POP POP POP JUMP JUMPDEST PUSH1 0x0 DUP1 PUSH1 0x0 PUSH2 0xCD5 DUP5 DUP8 DUP8 PUSH1 0x1 PUSH2 0xE94 JUMP JUMPDEST DUP1 SWAP4 POP DUP2 SWAP5 POP DUP3 SWAP6 POP POP POP POP PUSH2 0xCEA DUP2 PUSH2 0xDA6 JUMP JUMPDEST SWAP1 POP PUSH32 0xFFFFFFFFFFFFFFFFFFFFFFFFFFFFFFFFFFFFFFFFFFFFFFFFFFFFFFFEFFFFFC2F DUP1 PUSH2 0xD14 JUMPI INVALID JUMPDEST DUP2 DUP5 MULMOD SWAP3 POP PUSH32 0xFFFFFFFFFFFFFFFFFFFFFFFFFFFFFFFFFFFFFFFFFFFFFFFFFFFFFFFEFFFFFC2F DUP1 PUSH2 0xD41 JUMPI INVALID JUMPDEST DUP2 DUP4 MULMOD SWAP2 POP POP SWAP4 POP SWAP4 SWAP2 POP POP JUMP JUMPDEST PUSH1 0x0 DUP1 PUSH2 0xD9D PUSH32 0x79BE667EF9DCBBAC55A06295CE870B07029BFCDB2DCE28D959F2815B16F81798 PUSH32 0x483ADA7726A3C4655DA4FBFC0E1108A8FD17B448A68554199C47D08FFB10D4B8 DUP6 PUSH2 0xCC3 JUMP JUMPDEST SWAP2 POP SWAP2 POP SWAP2 POP SWAP2 JUMP JUMPDEST PUSH1 0x0 DUP1 PUSH1 0x0 SWAP1 POP PUSH1 0x0 PUSH1 0x1 SWAP1 POP PUSH1 0x0 PUSH32 0xFFFFFFFFFFFFFFFFFFFFFFFFFFFFFFFFFFFFFFFFFFFFFFFFFFFFFFFEFFFFFC2F SWAP1 POP PUSH1 0x0 DUP6 SWAP1 POP PUSH1 0x0 JUMPDEST PUSH1 0x0 DUP3 EQ PUSH2 0xE87 JUMPI DUP2 DUP4 DUP2 PUSH2 0xDF1 JUMPI INVALID JUMPDEST DIV SWAP1 POP DUP4 PUSH32 0xFFFFFFFFFFFFFFFFFFFFFFFFFFFFFFFFFFFFFFFFFFFFFFFFFFFFFFFEFFFFFC2F DUP1 PUSH2 0xE1D JUMPI INVALID JUMPDEST PUSH32 0xFFFFFFFFFFFFFFFFFFFFFFFFFFFFFFFFFFFFFFFFFFFFFFFFFFFFFFFEFFFFFC2F DUP1 PUSH2 0xE45 JUMPI INVALID JUMPDEST DUP7 DUP5 MULMOD PUSH32 0xFFFFFFFFFFFFFFFFFFFFFFFFFFFFFFFFFFFFFFFFFFFFFFFFFFFFFFFEFFFFFC2F SUB DUP8 ADDMOD DUP1 SWAP6 POP DUP2 SWAP7 POP POP POP DUP2 DUP3 DUP3 MUL DUP5 SUB DUP1 SWAP4 POP DUP2 SWAP5 POP POP POP PUSH2 0xDE0 JUMP JUMPDEST DUP5 SWAP6 POP POP POP POP POP POP SWAP2 SWAP1 POP JUMP JUMPDEST PUSH1 0x0 DUP1 PUSH1 0x0 DUP1 DUP8 SWAP1 POP PUSH1 0x0 DUP8 SWAP1 POP PUSH1 0x0 DUP8 SWAP1 POP PUSH1 0x0 DUP8 SWAP1 POP PUSH1 0x0 DUP1 SWAP1 POP PUSH1 0x0 DUP1 SWAP1 POP PUSH1 0x0 PUSH1 0x1 SWAP1 POP PUSH1 0x0 DUP15 EQ ISZERO PUSH2 0xEE5 JUMPI PUSH1 0x0 DUP1 PUSH1 0x1 DUP3 SWAP3 POP DUP2 SWAP2 POP DUP1 SWAP1 POP SWAP10 POP SWAP10 POP SWAP10 POP POP POP POP POP POP POP POP PUSH2 0xF54 JUMP JUMPDEST JUMPDEST PUSH1 0x0 DUP8 EQ PUSH2 0xF3D JUMPI PUSH1 0x0 PUSH1 0x1 DUP9 AND EQ PUSH2 0xF14 JUMPI PUSH2 0xF07 DUP4 DUP4 DUP4 DUP10 DUP10 DUP10 PUSH2 0x1119 JUMP JUMPDEST DUP1 SWAP4 POP DUP2 SWAP5 POP DUP3 SWAP6 POP POP POP POP JUMPDEST PUSH1 0x2 DUP8 DUP2 PUSH2 0xF1E JUMPI INVALID JUMPDEST DIV SWAP7 POP PUSH2 0xF2C DUP7 DUP7 DUP7 PUSH2 0x13C8 JUMP JUMPDEST DUP1 SWAP7 POP DUP2 SWAP8 POP DUP3 SWAP9 POP POP POP POP PUSH2 0xEE6 JUMP JUMPDEST DUP3 DUP3 DUP3 DUP1 SWAP11 POP DUP2 SWAP12 POP DUP3 SWAP13 POP POP POP POP POP POP POP POP POP POP POP JUMPDEST SWAP5 POP SWAP5 POP SWAP5 SWAP2 POP POP JUMP JUMPDEST PUSH1 0x0 DUP1 DUP5 SWAP1 POP PUSH1 0x0 PUSH32 0xFFFFFFFFFFFFFFFFFFFFFFFFFFFFFFFEBAAEDCE6AF48A03BBFD25E8CD0364141 SWAP1 POP DUP1 DUP3 DUP3 SUB DUP2 PUSH2 0xF94 JUMPI INVALID JUMPDEST MOD SWAP2 POP DUP1 DUP1 PUSH2 0xF9F JUMPI INVALID JUMPDEST DUP6 PUSH1 0x0 PUSH1 0x2 DUP2 LT PUSH2 0xFAC JUMPI INVALID JUMPDEST PUSH1 0x20 MUL ADD MLOAD DUP4 MULMOD SWAP2 POP PUSH1 0x1 DUP3 PUSH1 0x0 SHL PUSH1 0x0 PUSH1 0x2 DUP9 PUSH1 0x1 PUSH1 0x2 DUP2 LT PUSH2 0xFCC JUMPI INVALID JUMPDEST PUSH1 0x20 MUL ADD MLOAD DUP2 PUSH2 0xFD8 JUMPI INVALID JUMPDEST MOD EQ ISZERO PUSH2 0xFE6 JUMPI PUSH1 0x1B PUSH2 0xFE9 JUMP JUMPDEST PUSH1 0x1C JUMPDEST DUP8 PUSH1 0x0 PUSH1 0x2 DUP2 LT PUSH2 0xFF6 JUMPI INVALID JUMPDEST PUSH1 0x20 MUL ADD MLOAD PUSH1 0x0 SHL DUP5 DUP1 PUSH2 0x1006 JUMPI INVALID JUMPDEST DUP10 PUSH1 0x0 PUSH1 0x2 DUP2 LT PUSH2 0x1013 JUMPI INVALID JUMPDEST PUSH1 0x20 MUL ADD MLOAD DUP10 MULMOD PUSH1 0x0 SHL PUSH1 0x40 MLOAD PUSH1 0x0 DUP2 MSTORE PUSH1 0x20 ADD PUSH1 0x40 MSTORE PUSH1 0x40 MLOAD DUP1 DUP6 DUP2 MSTORE PUSH1 0x20 ADD DUP5 PUSH1 0xFF AND PUSH1 0xFF AND DUP2 MSTORE PUSH1 0x20 ADD DUP4 DUP2 MSTORE PUSH1 0x20 ADD DUP3 DUP2 MSTORE PUSH1 0x20 ADD SWAP5 POP POP POP POP POP PUSH1 0x20 PUSH1 0x40 MLOAD PUSH1 0x20 DUP2 SUB SWAP1 DUP1 DUP5 SUB SWAP1 DUP6 GAS STATICCALL ISZERO DUP1 ISZERO PUSH2 0x1074 JUMPI RETURNDATASIZE PUSH1 0x0 DUP1 RETURNDATACOPY RETURNDATASIZE PUSH1 0x0 REVERT JUMPDEST POP POP POP PUSH1 0x20 PUSH1 0x40 MLOAD SUB MLOAD SWAP3 POP POP POP SWAP4 SWAP3 POP POP POP JUMP JUMPDEST PUSH1 0x0 DUP1 PUSH1 0x0 PUSH2 0x109E DUP8 DUP8 PUSH1 0x1 DUP9 DUP9 PUSH1 0x1 PUSH2 0x1119 JUMP JUMPDEST DUP1 SWAP4 POP DUP2 SWAP5 POP DUP3 SWAP6 POP POP POP POP PUSH2 0x10B3 DUP2 PUSH2 0xDA6 JUMP JUMPDEST SWAP1 POP PUSH32 0xFFFFFFFFFFFFFFFFFFFFFFFFFFFFFFFFFFFFFFFFFFFFFFFFFFFFFFFEFFFFFC2F DUP1 PUSH2 0x10DD JUMPI INVALID JUMPDEST DUP2 DUP5 MULMOD SWAP3 POP PUSH32 0xFFFFFFFFFFFFFFFFFFFFFFFFFFFFFFFFFFFFFFFFFFFFFFFFFFFFFFFEFFFFFC2F DUP1 PUSH2 0x110A JUMPI INVALID JUMPDEST DUP2 DUP4 MULMOD SWAP2 POP POP SWAP5 POP SWAP5 SWAP3 POP POP POP JUMP JUMPDEST PUSH1 0x0 DUP1 PUSH1 0x0 DUP1 PUSH1 0x0 DUP1 PUSH1 0x0 DUP1 DUP14 EQ DUP1 ISZERO PUSH2 0x1133 JUMPI POP PUSH1 0x0 DUP13 EQ JUMPDEST ISZERO PUSH2 0x114A JUMPI DUP10 DUP10 DUP10 SWAP7 POP SWAP7 POP SWAP7 POP POP POP POP POP PUSH2 0x1330 JUMP JUMPDEST PUSH1 0x0 DUP11 EQ DUP1 ISZERO PUSH2 0x115A JUMPI POP PUSH1 0x0 DUP10 EQ JUMPDEST ISZERO PUSH2 0x1171 JUMPI DUP13 DUP13 DUP13 SWAP7 POP SWAP7 POP SWAP7 POP POP POP POP POP PUSH2 0x1330 JUMP JUMPDEST DUP10 DUP14 EQ DUP1 ISZERO PUSH2 0x117F JUMPI POP DUP9 DUP13 EQ JUMPDEST ISZERO PUSH2 0x11DF JUMPI PUSH2 0x1190 DUP14 DUP13 DUP16 DUP15 PUSH2 0xB97 JUMP JUMPDEST DUP1 SWAP5 POP DUP2 SWAP6 POP POP POP PUSH2 0x11A6 DUP5 DUP5 PUSH1 0x3 PUSH1 0x1 PUSH2 0xB97 JUMP JUMPDEST DUP1 SWAP5 POP DUP2 SWAP6 POP POP POP PUSH2 0x11BC DUP5 DUP5 PUSH1 0x0 PUSH1 0x1 PUSH2 0x894 JUMP JUMPDEST DUP1 SWAP5 POP DUP2 SWAP6 POP POP POP PUSH2 0x11D2 DUP13 DUP13 PUSH1 0x2 PUSH1 0x1 PUSH2 0xB97 JUMP JUMPDEST DUP1 SWAP3 POP DUP2 SWAP4 POP POP POP PUSH2 0x1208 JUMP JUMPDEST PUSH2 0x11EB DUP10 DUP10 DUP15 DUP15 PUSH2 0x9F7 JUMP JUMPDEST DUP1 SWAP5 POP DUP2 SWAP6 POP POP POP PUSH2 0x11FF DUP11 DUP10 DUP16 DUP15 PUSH2 0x9F7 JUMP JUMPDEST DUP1 SWAP3 POP DUP2 SWAP4 POP POP POP JUMPDEST PUSH2 0x1214 DUP5 DUP5 DUP5 DUP5 PUSH2 0xC01 JUMP JUMPDEST DUP1 SWAP5 POP DUP2 SWAP6 POP POP POP PUSH2 0x1228 DUP5 DUP5 DUP7 DUP7 PUSH2 0xB97 JUMP JUMPDEST DUP1 SWAP4 POP DUP2 SWAP9 POP POP POP PUSH2 0x123C DUP8 DUP4 DUP16 DUP15 PUSH2 0x9F7 JUMP JUMPDEST DUP1 SWAP4 POP DUP2 SWAP9 POP POP POP PUSH2 0x1250 DUP8 DUP4 DUP13 DUP12 PUSH2 0x9F7 JUMP JUMPDEST DUP1 SWAP4 POP DUP2 SWAP9 POP POP POP PUSH2 0x1264 DUP14 DUP13 DUP10 DUP6 PUSH2 0x9F7 JUMP JUMPDEST DUP1 SWAP3 POP DUP2 SWAP8 POP POP POP PUSH2 0x1278 DUP7 DUP3 DUP7 DUP7 PUSH2 0xB97 JUMP JUMPDEST DUP1 SWAP3 POP DUP2 SWAP8 POP POP POP PUSH2 0x128C DUP7 DUP3 DUP15 DUP15 PUSH2 0x9F7 JUMP JUMPDEST DUP1 SWAP3 POP DUP2 SWAP8 POP POP POP DUP1 DUP3 EQ PUSH2 0x1327 JUMPI PUSH32 0xFFFFFFFFFFFFFFFFFFFFFFFFFFFFFFFFFFFFFFFFFFFFFFFFFFFFFFFEFFFFFC2F DUP1 PUSH2 0x12C3 JUMPI INVALID JUMPDEST DUP2 DUP9 MULMOD SWAP7 POP PUSH32 0xFFFFFFFFFFFFFFFFFFFFFFFFFFFFFFFFFFFFFFFFFFFFFFFFFFFFFFFEFFFFFC2F DUP1 PUSH2 0x12F0 JUMPI INVALID JUMPDEST DUP3 DUP8 MULMOD SWAP6 POP PUSH32 0xFFFFFFFFFFFFFFFFFFFFFFFFFFFFFFFFFFFFFFFFFFFFFFFFFFFFFFFEFFFFFC2F DUP1 PUSH2 0x131D JUMPI INVALID JUMPDEST DUP2 DUP4 MULMOD SWAP5 POP PUSH2 0x132B JUMP JUMPDEST DUP2 SWAP5 POP JUMPDEST POP POP POP POP JUMPDEST SWAP7 POP SWAP7 POP SWAP7 SWAP4 POP POP POP POP JUMP JUMPDEST PUSH1 0x0 DUP1 PUSH1 0x0 PUSH2 0x134E DUP7 DUP7 DUP7 PUSH1 0x1 PUSH2 0xE94 JUMP JUMPDEST DUP1 SWAP4 POP DUP2 SWAP5 POP DUP3 SWAP6 POP POP POP POP PUSH2 0x1363 DUP2 PUSH2 0xDA6 JUMP JUMPDEST SWAP1 POP PUSH32 0xFFFFFFFFFFFFFFFFFFFFFFFFFFFFFFFFFFFFFFFFFFFFFFFFFFFFFFFEFFFFFC2F DUP1 PUSH2 0x138D JUMPI INVALID JUMPDEST DUP2 DUP5 MULMOD SWAP3 POP PUSH32 0xFFFFFFFFFFFFFFFFFFFFFFFFFFFFFFFFFFFFFFFFFFFFFFFFFFFFFFFEFFFFFC2F DUP1 PUSH2 0x13BA JUMPI INVALID JUMPDEST DUP2 DUP4 MULMOD SWAP2 POP POP SWAP4 POP SWAP4 SWAP2 POP POP JUMP JUMPDEST PUSH1 0x0 DUP1 PUSH1 0x0 PUSH2 0x13DB DUP7 DUP7 DUP7 DUP10 DUP10 DUP10 PUSH2 0x1119 JUMP JUMPDEST DUP1 SWAP4 POP DUP2 SWAP5 POP DUP3 SWAP6 POP POP POP POP SWAP4 POP SWAP4 POP SWAP4 SWAP1 POP JUMP INVALID LOG2 PUSH6 0x627A7A723058 KECCAK256 0xe3 MLOAD PUSH25 0xFC47BAE5908CE314900AEB09C80A1855878478230D6D13B992 0xbe 0xdc SWAP14 0xd2 PUSH5 0x736F6C6343 STOP SDIV MULMOD STOP ORIGIN "
    },
    "gasEstimates": {
      "creation": {
        "codeDepositCost": "1031400",
        "executionCost": "1074",
        "totalCost": "1032474"
      },
      "external": {
        "_ecAdd(uint256,uint256,uint256,uint256,uint256,uint256)": "infinite",
        "_ecDouble(uint256,uint256,uint256)": "infinite",
        "_ecMul(uint256,uint256,uint256,uint256)": "infinite",
        "_inverse(uint256)": "infinite",
        "_jAdd(uint256,uint256,uint256,uint256)": "579",
        "_jDiv(uint256,uint256,uint256,uint256)": "516",
        "_jMul(uint256,uint256,uint256,uint256)": "604",
        "_jSub(uint256,uint256,uint256,uint256)": "673",
        "a()": "295",
        "b()": "294",
        "deriveKey(uint256,uint256,uint256)": "infinite",
        "ecadd(uint256,uint256,uint256,uint256)": "infinite",
        "ecmul(uint256,uint256,uint256)": "infinite",
        "ecmulVerify(uint256,uint256,uint256,uint256,uint256)": "infinite",
        "gx()": "273",
        "gy()": "228",
        "n()": "250",
        "point_hash(uint256[2])": "infinite",
        "publicKey(uint256)": "infinite",
        "publicKeyVerify(uint256,uint256,uint256)": "infinite",
        "sbmul_add_mul(uint256,uint256[2],uint256)": "infinite"
      }
    },
    "methodIdentifiers": {
      "_ecAdd(uint256,uint256,uint256,uint256,uint256,uint256)": "db318833",
      "_ecDouble(uint256,uint256,uint256)": "f47289e1",
      "_ecMul(uint256,uint256,uint256,uint256)": "913f424c",
      "_inverse(uint256)": "8cecf66e",
      "_jAdd(uint256,uint256,uint256,uint256)": "0138e31b",
      "_jDiv(uint256,uint256,uint256,uint256)": "5f972df8",
      "_jMul(uint256,uint256,uint256,uint256)": "5b764811",
      "_jSub(uint256,uint256,uint256,uint256)": "1ecfe64d",
      "a()": "0dbe671f",
      "b()": "4df7e3d0",
      "deriveKey(uint256,uint256,uint256)": "e241c1d9",
      "ecadd(uint256,uint256,uint256,uint256)": "bb8c256a",
      "ecmul(uint256,uint256,uint256)": "8081a1e7",
      "ecmulVerify(uint256,uint256,uint256,uint256,uint256)": "022079d9",
      "gx()": "06c91ce3",
      "gy()": "2d58c9a2",
      "n()": "2e52d606",
      "point_hash(uint256[2])": "426817fa",
      "publicKey(uint256)": "8940aebe",
      "publicKeyVerify(uint256,uint256,uint256)": "66ce10b7",
      "sbmul_add_mul(uint256,uint256[2],uint256)": "a01539fc"
    }
  },
  "userdoc": {
    "methods": {
      "sbmul_add_mul(uint256,uint256[2],uint256)": {
        "notice": "hash(g^a + B^c)"
      }
    }
  }
}